:020000040800F2
:1000000000280020811E0008111E0008171E00088D
:100010001D1E0008231E0008291E00080000000005
:100020000000000000000000000000002F1E00087B
:100030003B1E000800000000471E0008531E000879
:10004000C91E0008C91E0008C91E0008C91E0008F4
:10005000C91E0008C91E0008C91E0008C91E0008E4
:10006000C91E0008C91E0008C91E0008C91E0008D4
:10007000C91E0008C91E0008C91E0008C91E0008C4
:10008000C91E0008C91E0008C91E0008C91E0008B4
:10009000C91E0008C91E0008C91E0008C91E0008A4
:1000A000C91E0008C91E0008C91E0008C91E000894
:1000B000611E0008C91E000800000000C91E0008DB
:1000C000C91E00080000000000000000C91E000852
:1000D00000000000C91E0008C91E00080000000042
:1000E000C91E0008C91E0008C91E00080000000043
:1000F0000000000000000000000000000000000000
:0C01000000000000000000005FF808F1A3
:10010C0010B5054C237833B9044B13B10448AFF345
:10011C0000800123237010BDF801002000000000B6
:10012C003035000808B5034B1BB103490348AFF346
:10013C00008008BD00000000FC01002030350008E4
:10014C0080B582B000AF0023FB7106E0FB79184646
:10015C0000F028F9FB790133FB71FB79272BF5D9DA
:10016C00034B00221A7000BF0837BD4680BD00BF8C
:10017C003C03002080B483B000AF0023FB715DE032
:10018C00FA79334913469B0013449B000B441B68BC
:10019C00002B50D0FA792E4913469B0013449B0038
:1001AC000B4404331B68002B32D1FA7928491346CF
:1001BC009B0013449B000B440C331B78FA790133DE
:1001CC00D8B2234913469B0013449B000B440C33B9
:1001DC0002461A70FA791E4913469B0013449B0081
:1001EC000B4408331B68002B25D0F979FA79184891
:1001FC000B469B000B449B000344083319681448BE
:10020C0013469B0013449B0003440433196012E013
:10021C00FA790F4913469B0013449B000B4404339B
:10022C001B68FA79591E0A4813469B0013449B001D
:10023C00034404331960FB790133FB71FB79272BE1
:10024C009ED900BF00BF0C37BD4680BC704700BFB5
:10025C004003002080B487B000AFF860B9607A60CA
:10026C000023FB7502E0FB7D0133FB75FA7D24490D
:10027C0013469B0013449B000B441B68002B02D0BD
:10028C00FB7D272BEFD9FB7D282B04D11D4B0122A5
:10029C001A7028232FE0FA7D194913469B0013444A
:1002AC009B000B44FA681A60FA7DBB681649A1FBE7
:1002BC000313D908124813469B0013449B000344B4
:1002CC0004331960FA7D7B680F49A1FB0313D9082D
:1002DC000B4813469B0013449B00034408331960DE
:1002EC00FA7D074913469B0013449B000B440C33C7
:1002FC0000221A70FB7D18461C37BD4680BC704727
:10030C00400300203C030020CDCCCCCC80B582B087
:10031C0000AF0023FB713AE0FA79214913469B00A8
:10032C0013449B000B440C331B78002B2CD0FA7914
:10033C001B4913469B0013449B000B441B689847B6
:10034C00FA79174913469B0013449B000B440C335A
:10035C001B78FA79013BD8B2114913469B00134420
:10036C009B000B440C3302461A70FA790C49134665
:10037C009B0013449B000B4408331B68002B03D1D8
:10038C00FB79184600F00EF8FB790133FB71FB7911
:10039C00272BC1D900F04EF800BF0837BD4680BDF1
:1003AC004003002080B485B000AF0346FB71FA799E
:1003BC001E4913469B0013449B000B441B68002BE7
:1003CC0005D11B4B02221A700323FB7301E004239B
:1003DC00FB73FA79154913469B0013449B000B449D
:1003EC0000221A60FA79114913469B0013449B00B2
:1003FC000B44043300221A60FA790C4913469B0013
:10040C0013449B000B44083300221A60FA79074905
:10041C0013469B0013449B000B440C3300221A70B0
:10042C00FB7B18461437BD4680BC70474003002048
:10043C003C03002080B500AF0121002002F072F8CF
:10044C0000BF80BD80B582B000AF78607B68022BA6
:10045C0017D07B68022B1BDC7B68002B03D07B68DE
:10046C00012B07D014E04FF400510C4802F012F8A5
:10047C0003460EE04FF48041084802F00BF80346A7
:10048C0007E04FF40041054802F004F8034600E091
:10049C00012318460837BD4680BD00BF001001403F
:1004AC0080B483B000AF7860094A7B6852F823307F
:1004BC00002B06D0064A7B68002142F8231001234A
:1004CC0000E0002318460C37BD4680BC704700BFC7
:1004DC001402002080B483B000AF7860094A7B68B6
:1004EC0052F82330002B06D0064A7B68002142F8D4
:1004FC002310012300E0002318460C37BD4680BCB6
:10050C00704700BF3C02002080B582B000AF0023D2
:10051C007B60B0E05C4A7B6852F823205B497B68C7
:10052C0041F823205A4A7B6852F8232056497B68AD
:10053C0041F823207868FFF785FF024654497B6811
:10054C0041F82320524A7B6852F823204E497B689D
:10055C0051F823309A4257D14B4A7B6852F82320EA
:10056C004A497B6851F823309A424DD1494A7B68FD
:10057C0052F82330022B08DC464A7B6852F82330B1
:10058C005A1C44497B6841F82320424A7B6852F844
:10059C002330022B3EDD3D4A7B6852F823203E4936
:1005AC007B6851F823309A4234D0384A7B6852F831
:1005BC00232039497B6841F82320374A7B6852F85D
:1005CC002330002B0AD1354A7B68002142F82310D6
:1005DC00334A7B68002142F823101BE0304A7B68C9
:1005EC0052F82330002B04D12E4A7B68012142F8AB
:1005FC0023102A4A7B68002142F82310284A7B6882
:10060C00002142F8231005E0224A7B68002142F8C1
:10061C00231000E000BF204A7B6852F82330002BE7
:10062C0026D11E4A7B6852F823306FF00042934269
:10063C0008D01A4A7B6852F823305A1C17497B6839
:10064C0041F82320164A7B6852F82330002B0FD137
:10065C00124A7B6852F82330C72B09DD124A7B689B
:10066C00012142F823100E4A7B68012142F8231025
:10067C007B6801337B607B68092B7FF74BAF00BF36
:10068C0000BF0837BD4680BD280000205000002068
:10069C000000002064020020780000208C02002062
:1006AC00B4020020140200203C02002080B500AFF0
:1006BC000020FFF7F5FE0346012B0CD101F056F894
:1006CC0000F094F9054B0C221A60FA21022001F07B
:1006DC00F5FA00F043FC00BF80BD00BFA000002075
:1006EC0080B500AF0020FFF7F5FE0346012B0CD1BF
:1006FC00074B16221A60FA21022001F0DFFA64215E
:10070C00092001F0DBFA00F049FC00BF80BD00BFFE
:10071C00A000002080B500AF00F02EFFA04B1B689E
:10072C000133062B00F2388101A252F823F000BFEE
:10073C006F070008A509000859070008A50700085D
:10074C0025080008A50800082509000864210920CF
:10075C0001F0B4FA00F0F2FB914B4FF0FF321A604B
:10076C001BE18F4B02221A604FF47A71002001F0CA
:10077C00A5FA8C4B1B684FF47A7202FB03F31946F3
:10078C00012001F09BFA884B1B68864A12681146BF
:10079C00184600F059FF00E100F0F8FF834B1B688E
:1007AC00002B16D0824B1B68002B04DD804B1B6882
:1007BC00013B7F4A13607F4B1B68002B04DD7D4B94
:1007CC001B68013B7B4A13604FF47A71002001F0E7
:1007DC0075FA764B5B68002B19D0714B03221A60AB
:1007EC004FF47A71002001F069FA734B1B684FF4D7
:1007FC007A7202FB03F31946012001F05FFA6E4B8B
:10080C001B686D4A12681146184600F01DFFFFF771
:10081C004DFFFFF765FFC0E000F0C2FF634B1B68A4
:10082C00002B16D0624B1B68002B04DD604B1B6841
:10083C00013B5F4A13605F4B1B68002B04DD5D4B73
:10084C001B68013B5B4A13604FF47A71002001F086
:10085C0035FA564B5B68002B19D0514B04221A60A9
:10086C004FF47A71002001F029FA544B1B684FF4B5
:10087C007A7202FB03F31946012001F01FFA4F4B69
:10088C001B684F4A12681146184600F0DDFEFFF750
:10089C000DFFFFF725FF80E000F08CFF434B1B683A
:1008AC00002B16D0424B1B68002B04DD404B1B6801
:1008BC00013B3F4A13603F4B1B68002B04DD3D4B53
:1008CC001B68013B3B4A13604FF47A71002001F026
:1008DC00F5F9364B5B68002B19D0314B05221A60A9
:1008EC004FF47A71002001F0E9F9364B1B684FF494
:1008FC007A7202FB03F31946012001F0DFF9314B48
:10090C001B68304A12681146184600F09DFEFFF72E
:10091C00CDFEFFF7E5FE40E000F056FF234B1B68D1
:10092C00002B16D0224B1B68002B04DD204B1B68C0
:10093C00013B1F4A13601F4B1B68002B04DD1D4B32
:10094C001B68013B1B4A13604FF47A71002001F0C5
:10095C00B5F9164B5B68002B19D0114B02221A60AB
:10096C004FF47A71002001F0A9F90E4B1B684FF47B
:10097C007A7202FB03F31946012001F09FF90A4B2E
:10098C001B68084A12681146184600F05DFEFFF716
:10099C008DFEFFF7A5FE00E000BF00BF80BD00BFCD
:1009AC00A0000020C0000020A4000020EC020020C9
:1009BC00E4020020E8020020C4000020A80000206F
:1009CC00BC000020AC00002080B483B000AF786085
:1009DC007B6801337B607B68632B01DD01237B60CB
:1009EC007B6818460C37BD4680BC704780B400AF9E
:1009FC000D4B1B680D4A13600D4B1B680D4A1360A1
:100A0C000D4B1B680D4A13600D4B1B680D4A136090
:100A1C000D4B1B680D4A13600D4B1B680D4A136080
:100A2C0000BFBD4680BC7047A4000020B000002071
:100A3C00A8000020B4000020AC000020B80000206A
:100A4C00BC000020C8000020C0000020CC0000200A
:100A5C00C4000020D000002080B500AF0120FFF7BB
:100A6C001FFD0346002B79D03E4B1B680C3B052B1E
:100A7C0076D801A252F823F09D0A0008030B000857
:100A8C00BF0A0008250B0008E10A0008470B000804
:100A9C00354B1B681846FFF797FF0346324A136025
:100AAC00324B1B681846FFF78FFF03462F4A136023
:100ABC0057E02F4B1B681846FFF786FF03462C4A5E
:100ACC0013602C4B1B681846FFF77EFF0346294A20
:100ADC00136046E0284B1B681846FFF775FF03466A
:100AEC00254A1360234B1B681846FFF76DFF03461E
:100AFC00204A136035E01F4B1B681846FFF764FF54
:100B0C0003461C4A13601A4B1B681846FFF75CFF20
:100B1C000346174A136024E0144B1B681846FFF772
:100B2C0053FF0346114A13600F4B1B681846FFF71F
:100B3C004BFF03460C4A136013E0104B1B6818461E
:100B4C00FFF742FF03460D4A1360074B1B6818461C
:100B5C00FFF73AFF0346044A136002E000BF00E0CF
:100B6C0000BF80BDA0000020B0000020CC00002001
:100B7C00B4000020C8000020B8000020D0000020E5
:100B8C0080B500AF0220FFF78BFC0346002B49D049
:100B9C00254B1B680C3B052B45D801A252F823F0C2
:100BAC00C50B0008FB0B0008D70B00080D0C000848
:100BBC00E90B00081F0C00081C4B1B681C4A136037
:100BCC001C4B1B681C4A13602DE01C4B1B681C4AF9
:100BDC0013601C4B1B681C4A136024E01B4B1B68E6
:100BEC001B4A1360174B1B68174A13601BE0154B0D
:100BFC001B68154A1360114B1B68114A136012E0F5
:100C0C000C4B1B680C4A1360084B1B68084A13609A
:100C1C0009E0104B1B68104A1360044B1B68044A14
:100C2C00136000E000BF80BDA0000020B0000020D9
:100C3C00A4000020CC000020C0000020B400002044
:100C4C00A8000020C8000020BC000020B800002034
:100C5C00AC000020D0000020C400002080B500AF04
:100C6C000020FFF71DFC0346002B4DD000F07EFD4D
:100C7C00264B1B680C3B052B42D801A252F823F0E3
:100C8C00A50C0008C10C0008AD0C0008C90C00082C
:100C9C00B50C0008D10C00081C4B0E221A6034E075
:100CAC001A4B10221A6030E000F068F9174B0D2235
:100CBC001A602AE0154B0F221A6026E0134B112202
:100CCC001A6022E000F01CFD104B4FF0FF321A604E
:100CDC004FF47A71002000F0F1FF0D4B1B684FF4BC
:100CEC007A7202FB03F31946012000F0E7FF094B6F
:100CFC001B68074A12681146184600F0A5FC04E070
:100D0C00024B0C221A6000E000BF80BDA000002046
:100D1C00C0000020A400002080B500AF174B9B68DA
:100D2C00002B29D0164B1B680C3B052B20D801A29D
:100D3C0052F823F0590D00086B0D00085F0D0008E8
:100D4C00710D0008650D0008770D000800F092FD8C
:100D5C000EE000F06FFD0BE000F07CFD08E000F011
:100D6C0059FD05E000F03AFD02E000F045FD00BF42
:100D7C00FA21022000F0A2FF00BF80BDEC0200208F
:100D8C00A000002080B500AF00F0F6FB264B1B68DE
:100D9C000C3B052B44D801A252F823F0C10D0008DE
:100DAC00F70D0008D30D0008090E0008E50D00082A
:100DBC001B0E0008FFF752FFFFF74EFEFFF7E0FE99
:100DCC00FFF7AAFF2DE0FFF749FFFFF745FEFFF7FE
:100DDC00D7FEFFF7A1FF24E0FFF740FFFFF73CFE33
:100DEC00FFF7CEFEFFF798FF1BE0FFF737FFFFF78B
:100DFC0033FEFFF7C5FEFFF78FFF12E0FFF72EFF64
:100E0C00FFF72AFEFFF7BCFEFFF786FF09E0FFF7AE
:100E1C0025FFFFF721FEFFF7B3FEFFF77DFF00E094
:100E2C0000BF00BF80BD00BFA000002080B500AF98
:100E3C000020FFF735FB0346012B05D1034B4FF088
:100E4C00FF321A6000F07AF800BF80BDA0000020CD
:100E5C0080B500AF00F090FB254B1B68163B032BB5
:100E6C0042D801A252F823F0850E0008A10E00080A
:100E7C00BD0E0008D90E00080220FFF711FB034637
:100E8C00012B02D11A4B17221A60FFF7CFFF00F08B
:100E9C00C3FD2AE00220FFF703FB0346012B02D11E
:100EAC00134B18221A60FFF7C1FF00F0BDFD1CE0C8
:100EBC000220FFF7F5FA0346012B02D10C4B192245
:100ECC001A60FFF7B3FF00F0A7FD0EE00220FFF75A
:100EDC00E7FA0346012B02D1054B16221A60FFF7E5
:100EEC00A5FF00F0A9FD00E000BF00BF80BD00BF62
:100EFC00A000002080B500AF01224FF480510548BE
:100F0C0001F0DFFA01224FF40051024801F0D9FA46
:100F1C0000BF80BD000C014080B500AF01224FF432
:100F2C008041054801F0CDFA01224FF400410248FE
:100F3C0001F0C7FA00BF80BD000C014080B400AFC7
:100F4C00044B01221A70044B01221A7000BFBD46DB
:100F5C0080BC70476E0100206F01002080B500AF8F
:100F6C00044B01221A70044B00221A70FFF7D4FFB5
:100F7C0000BF80BD6E0100206F01002080B500AF66
:100F8C00044B00221A70044B01221A70FFF7B2FFB7
:100F9C0000BF80BD6E0100206F01002080B500AF46
:100FAC00054B00221A70054B00221A70FFF7A2FFA6
:100FBC00FFF7B2FF00BF80BD6E0100206F01002063
:100FCC0080B582B000AF786000224FF48051294880
:100FDC0001F077FA01224FF40051264801F071FA22
:100FEC00254B1868254B19887B681B781A4601F02D
:100FFC0068FA214B5868214B59887B6801331B7860
:10100C001A4601F05EFA1C4B98681C4B99887B6859
:10101C0002331B781A4601F054FA174BD868174B59
:10102C00D9887B6803331B781A4601F04AFA124BB5
:10103C001869124B19897B6804331B781A4601F026
:10104C0040FA0D4B58690D4B59897B6805331B7859
:10105C001A4601F036FA084B9869084B99897B6857
:10106C0006331B781A4601F02CFA00BF0837BD4630
:10107C0080BD00BF000C0140D40000200C010020FA
:10108C0080B582B000AF786001224FF480512948BE
:10109C0001F017FA00224FF40051264801F011FA22
:1010AC00254B1868254B19887B681B781A4601F06C
:1010BC0008FA214B5868214B59887B6801331B78FF
:1010CC001A4601F0FEF91C4B98681C4B99887B68FA
:1010DC0002331B781A4601F0F4F9174BD868174BFA
:1010EC00D9887B6803331B781A4601F0EAF9124B56
:1010FC001869124B19897B6804331B781A4601F066
:10110C00E0F90D4B58690D4B59897B6805331B78F9
:10111C001A4601F0D6F9084B9869084B99897B68F7
:10112C0006331B781A4601F0CCF900BF0837BD46D0
:10113C0080BD00BF000C0140D40000200C01002039
:10114C0080B582B000AF786000224FF4804129480E
:10115C0001F0B7F901224FF40041264801F0B1F932
:10116C00254BD869254BD9897B681B781A4601F029
:10117C00A8F9214B186A214B198A7B6801331B781B
:10118C001A4601F09EF91C4B586A1C4B598A7B6815
:10119C0002331B781A4601F094F9174B986A174BD7
:1011AC00998A7B6803331B781A4601F08AF9124B33
:1011BC00D86A124BD98A7B6804331B781A4601F023
:1011CC0080F90D4B186B0D4B198B7B6805331B7815
:1011DC001A4601F076F9084B586B084B598B7B6813
:1011EC0006331B781A4601F06CF900BF0837BD4670
:1011FC0080BD00BF000C0140D40000200C01002079
:10120C0080B582B000AF786001224FF4804129484C
:10121C0001F057F900224FF40041264801F051F932
:10122C00254BD869254BD9897B681B781A4601F068
:10123C0048F9214B186A214B198A7B6801331B78BA
:10124C001A4601F03EF91C4B586A1C4B598A7B68B4
:10125C0002331B781A4601F034F9174B986A174B76
:10126C00998A7B6803331B781A4601F02AF9124BD2
:10127C00D86A124BD98A7B6804331B781A4601F062
:10128C0020F90D4B186B0D4B198B7B6805331B78B4
:10129C001A4601F016F9084B586B084B598B7B68B2
:1012AC0006331B781A4601F00CF900BF0837BD460F
:1012BC0080BD00BF000C0140D40000200C010020B8
:1012CC0080B582B000AF78601A4B1B68002B02D03F
:1012DC00012B13D02AE07B68174A82FB0312921071
:1012EC00DB17D21A1346DB009B1A144A1344184618
:1012FC00FFF726FF0F4B01221A6017E079680E4B9F
:10130C0083FB01239A10CB17D21A13469B0013446C
:10131C005B00CA1A1346DB009B1A084A1344184692
:10132C00FFF76EFF034B00221A6000BF00BF0837A7
:10133C00BD4680BDDC020020676666662801002081
:10134C0080B582B000AF78601A4B1B68002B02D0BE
:10135C00012B13D02AE07B68174A82FB03129210F0
:10136C00DB17D21A1346DB009B1A144A1344184697
:10137C00FFF726FE0F4B01221A6017E079680E4B1F
:10138C0083FB01239A10CB17D21A13469B001344EC
:10139C005B00CA1A1346DB009B1A084A1344184612
:1013AC00FFF76EFE034B00221A6000BF00BF083728
:1013BC00BD4680BDE00200206766666628010020FD
:1013CC0080B500AF2F4B1B78002B55D02E4B1B68D4
:1013DC00023B172B4AD801A252F823F049140008FB
:1013EC00491400084914000849140008791400082D
:1013FC00791400087914000879140008791400088D
:10140C0079140008551400087914000861140008B8
:10141C00791400086D140008791400087914000878
:10142C007914000879140008791400088B1400084A
:10143C008B1400088B1400088B140008134B1B68CA
:10144C001846FFF77DFF1BE0114B1B681846FFF792
:10145C0077FF15E00F4B1B681846FFF771FF0FE085
:10146C000D4B1B681846FFF76BFF09E0074B1B6819
:10147C001846FFF765FF03E0FFF73CFD00E000BFF7
:10148C0000BF80BD6E010020A0000020E4020020FF
:10149C00B0000020B4000020B800002080B500AFE0
:1014AC002F4B1B78002B55D02E4B1B68023B172B58
:1014BC004AD801A252F823F025150008251500087A
:1014CC0025150008251500085515000855150008A8
:1014DC005515000855150008551500085515000838
:1014EC005515000831150008551500083D15000864
:1014FC005515000849150008551500085515000824
:10150C0055150008551500086715000867150008E3
:10151C006715000867150008134B1B681846FFF782
:10152C00CFFE1BE0114B1B681846FFF7C9FE15E0F8
:10153C000F4B1B681846FFF7C3FE0FE00D4B1B68E3
:10154C001846FFF7BDFE09E0074B1B681846FFF76E
:10155C00B7FE03E0FFF7E0FC00E000BF00BF80BD7A
:10156C006F010020A0000020E8020020C80000202D
:10157C00CC000020D000002080B500AF304B5B6A5F
:10158C00002B5BD02F4B1B68023B172B4AD801A2B8
:10159C0052F823F001160008011600080116000885
:1015AC000116000831160008311600083116000823
:1015BC00311600083116000831160008071600080D
:1015CC00191600080D1600081F160008131600083F
:1015DC0025160008311600083116000831160008CF
:1015EC00311600082B1600082B1600082B160008C5
:1015FC002B160008FFF7A2FC17E0FFF7AFFC14E076
:10160C00FFF7ACFC11E0FFF7A9FC0EE0FFF7B6FC0E
:10161C000BE0FFF7B3FC08E0FFF7B0FC05E0FFF7C9
:10162C00BDFC02E0FFF78AFC00BFFFF7C9FEFFF725
:10163C0035FF6421092000F041FB00E000BF80BDB4
:10164C00EC020020A000002080B483B000AF7860D2
:10165C003960054A7B681360044A3B68136000BF1D
:10166C000C37BD4680BC7047E4020020E802002025
:10167C0080B584B000AF78600023FB6011E00D4AA8
:10168C00FB6852F823000C4AFB6832F813107A6896
:10169C00FB6813441B781A4600F013FFFB680133F8
:1016AC00FB60FB680B2BEAD900BF00BF1037BD46AF
:1016BC0080BD00BF70010020A001002080B582B069
:1016CC0000AF00237B600EE00B4A7B6852F82300CE
:1016DC000A4A7B6832F813300022194600F0F1FEFA
:1016EC007B6801337B607B680B2BEDD900BF00BF9F
:1016FC000837BD4680BD00BF70010020A00100204E
:10170C0080B400AF0D4B1B680D4A13600D4B1B686A
:10171C000D4A13600D4B1B680D4A13600D4B1B6873
:10172C000D4A13600D4B1B680D4A13600D4B1B6863
:10173C000D4A136000BFBD4680BC7047B00000204E
:10174C00A4000020B4000020A8000020B800002055
:10175C00AC000020C8000020BC000020CC00002001
:10176C00C0000020D0000020C400002080B500AFD5
:10177C00FFF7A4FF034B00221A60034B00221A60F0
:10178C0000BF80BDE4020020E802002080B500AF5D
:10179C000248FFF76DFF00BF80BD00BFD0010020E5
:1017AC0080B500AF0248FFF763FF00BF80BD00BFEC
:1017BC00DC01002080B500AF0248FFF759FF00BFE5
:1017CC0080BD00BFB801002080B500AF0248FFF714
:1017DC004FFF00BF80BD00BFC401002080B500AF2B
:1017EC000121044800F085FE4021024800F081FEF2
:1017FC0000BF80BD000C014080B500AF0221044841
:10180C0000F077FE8021024800F073FE00BF80BD1F
:10181C00000C014080B500AF0421054800F069FEC2
:10182C004FF48071024800F064FE00BF80BD00BF21
:10183C00000C014080B500AF0821054800F059FEAE
:10184C004FF40071024800F054FE00BF80BD00BF91
:10185C00000C014080B500AF1021054800F049FE96
:10186C004FF48061024800F044FE00BF80BD00BF11
:10187C00000C014080B500AF2021054800F039FE76
:10188C004FF40061024800F034FE00BF80BD00BF81
:10189C00000C014080B500AF01221021104800F06F
:1018AC0010FE01224FF480610D4800F00AFE002268
:1018BC0008210B4800F005FE00224FF40071084887
:1018CC0000F0FFFD00222021054800F0FAFD002267
:1018DC004FF40061024800F0F4FD00BF80BD00BF72
:1018EC00000C014080B500AF01222021104800F00F
:1018FC00E8FD01224FF400610D4800F0E2FD0022EA
:10190C0008210B4800F0DDFD00224FF4007108485F
:10191C0000F0D7FD00221021054800F0D2FD002276
:10192C004FF48061024800F0CCFD00BF80BD00BFC9
:10193C00000C014080B500AF012201210F4800F0DE
:10194C00C0FD012240210D4800F0BBFD0022022108
:10195C000A4800F0B6FD00228021084800F0B1FDD5
:10196C0000220421054800F0ACFD00224FF48071E8
:10197C00024800F0A6FD00BF80BD00BF000C014076
:10198C0080B500AF012202210F4800F09AFD012220
:10199C0080210D4800F095FD002201210A4800F03D
:1019AC0090FD00224021084800F08BFD002204210C
:1019BC00054800F086FD00224FF48071024800F0CB
:1019CC0080FD00BF80BD00BF000C014080B500AFA2
:1019DC00012204210F4800F074FD01224FF48071A4
:1019EC000C4800F06EFD002201210A4800F069FD50
:1019FC0000224021074800F064FD00220221054826
:101A0C0000F05FFD00228021024800F05AFD00BF6B
:101A1C0080BD00BF000C014080B500AFFFF762FF36
:101A2C00FFF788FF00BF80BD80B500AFFFF75AFFFE
:101A3C00FFF7A6FF00BF80BD80B500AFFFF72AFF00
:101A4C00FFF7C4FF00BF80BD80B500AF00F038FACF
:101A5C0000F026F800F0ACF800F05EF80C4801F04D
:101A6C00A9F9FEF76DFB0A2200210A48FEF7F2FBEA
:101A7C000A224FF4FA610848FEF7ECFB0A224FF4F5
:101A8C00FA610648FEF7E6FBFEF740FCFCE700BFF8
:101A9C006006002021070008910D00085D0E00086B
:101AAC0080B590B000AF07F118032822002118462A
:101ABC0001F030FD3B1D00221A605A609A60DA601A
:101ACC001A610223BB610123BB621023FB6200235A
:101ADC007B6307F11803184600F040FD0346002B0A
:101AEC0001D000F0E5F80F237B600023BB600023DE
:101AFC00FB6000233B6100237B613B1D00211846EA
:101B0C0000F0ACFF0346002B01D000F0D1F800BF71
:101B1C004037BD4680BD000080B586B000AF07F1F0
:101B2C00080300221A605A609A60DA603B46002271
:101B3C001A605A601D4B4FF080421A601B4B41F6E5
:101B4C003F725A60194B00229A60184B0922DA60D6
:101B5C00164B00221A61154B00229A61134801F0B2
:101B6C00D9F80346002B01D000F0A2F84FF48053B3
:101B7C00BB6007F1080319460C4801F057FA0346FD
:101B8C00002B01D000F094F800233B6000237B6015
:101B9C003B461946054801F02FFC0346002B01D0AB
:101BAC0000F086F800BF1837BD4680BD60060020E7
:101BBC0080B588B000AF07F1100300221A605A609C
:101BCC009A60DA602F4B9B692E4A43F010039361A5
:101BDC002C4B9B6903F01003FB60FB68294B9B6942
:101BEC00284A43F004039361264B9B6903F00403DA
:101BFC00BB60BB68234B9B69224A43F0080393618B
:101C0C00204B9B6903F008037B607B68002247F63E
:101C1C00FE711D4800F055FC00224FF6FF711B4869
:101C2C0000F04FFC4FF460433B6100237B610123C8
:101C3C00BB6107F110031946154800F0B1FA47F6DD
:101C4C00FE733B6101237B610023BB610223FB61BB
:101C5C0007F1100319460C4800F0A2FA4FF6FF7377
:101C6C003B6101237B610023BB610223FB6107F114
:101C7C0010031946054800F093FA00BF2037BD4603
:101C8C0080BD00BF0010024000080140000C014064
:101C9C000010014080B582B000AF7860FEF76AFAA0
:101CAC0000F02AF8FEF730FC00BF0837BD4680BDB7
:101CBC0080B400AF72B600BFFEE7000080B483B002
:101CCC0000AF78603960094A7B68002142F8231024
:101CDC00074B1B683A6892FBF3F206497B6841F8A4
:101CEC00232000BF0C37BD4680BC7047EC0200209F
:101CFC00E80100201403002080B483B000AF00235F
:101D0C007B601CE0124A7B6852F82330002B08DD04
:101D1C000F4A7B6852F823305A1E0D497B6841F8F4
:101D2C0023200B4A7B6852F82330002B04DC094A31
:101D3C007B68012142F823107B6801337B607B6850
:101D4C00092BDFDD00BF00BF0C37BD4680BC7047E0
:101D5C0014030020EC02002080B485B000AF154BBA
:101D6C009B69144A43F001039361124B9B6903F086
:101D7C000103BB60BB680F4BDB690E4A43F0805319
:101D8C00D3610C4BDB6903F080537B607B680A4B9F
:101D9C005B68FB60FB6823F0E063FB60FB6843F06F
:101DAC008063FB60044AFB68536000BF1437BD4678
:101DBC0080BC7047001002400000014080B584B028
:101DCC0000AF78607B681B68B3F1804F13D10C4B6C
:101DDC00DB690B4A43F00103D361094BDB6903F068
:101DEC000103FB60FB68002200211C2000F0A1F91C
:101DFC001C2000F0BAF900BF1037BD4680BD00BFF3
:101E0C000010024080B400AFFEE780B400AFFEE7E4
:101E1C0080B400AFFEE780B400AFFEE780B400AF43
:101E2C00FEE780B400AF00BFBD4680BC704780B4F5
:101E3C0000AF00BFBD4680BC704780B400AF00BF90
:101E4C00BD4680BC704780B500AF00F07FF800BF86
:101E5C0080BD000080B500AF024800F0F7FF00BF66
:101E6C0080BD00BF6006002080B400AF00BFBD463F
:101E7C0080BC7047FFF7F8FF0B480C490C4A002355
:101E8C0002E0D458C4500433C4188C42F9D3094A24
:101E9C00094C002301E013600432A242FBD301F091
:101EAC0015FBFFF7D1FD704700000020F801002062
:101EBC0074350008F8010020AC060020FEE7000095
:101ECC0080B500AF084B1B68074A43F01003136042
:101EDC00032000F023F90F2000F008F8FFF73CFF77
:101EEC000023184680BD00BF0020024080B582B0A0
:101EFC0000AF7860124B1A68124B1B7819464FF4DE
:101F0C007A73B3FBF1F3B2FBF3F3184600F03BF931
:101F1C000346002B01D001230EE07B680F2B0AD85F
:101F2C00002279684FF0FF3000F003F9064A7B6815
:101F3C001360002300E0012318460837BD4680BD1E
:101F4C00EC010020F4010020F001002080B400AF6F
:101F5C00054B1B781A46054B1B681344034A136048
:101F6C0000BFBD4680BC7047F4010020A8060020CD
:101F7C0080B400AF024B1B681846BD4680BC70474E
:101F8C00A806002080B485B000AF78607B6803F0B1
:101F9C000703FB600C4BDB68BB60BA684FF6FF03B2
:101FAC001340BB60FB681A02BB68134343F0BF636A
:101FBC0043F40033BB60044ABB68D36000BF1437E2
:101FCC00BD4680BC704700BF00ED00E080B400AFA0
:101FDC00044BDB681B0A03F007031846BD4680BCA4
:101FEC00704700BF00ED00E080B483B000AF034643
:101FFC00FB7197F90730002B0BDBFB7903F01F0209
:10200C00064997F907305B09012000FA02F241F802
:10201C00232000BF0C37BD4680BC704700E100E0B8
:10202C0080B483B000AF03463960FB7197F9073079
:10203C00002B0ADB3B68DAB20C4997F90730120126
:10204C00D2B20B4483F800230AE03B68DAB20849A9
:10205C00FB7903F00F03043B1201D2B20B441A7646
:10206C0000BF0C37BD4680BC704700BF00E100E0EC
:10207C0000ED00E080B489B000AFF860B9607A6020
:10208C00FB6803F00703FB61FB69C3F10703042B37
:10209C0028BF0423BB61FB690433062B02D9FB69FF
:1020AC00033B00E000237B614FF0FF32BB6902FA77
:1020BC0003F3DA43BB681A407B699A404FF0FF3157
:1020CC007B6901FA03F3D9437B680B401343184631
:1020DC002437BD4680BC704780B582B000AF7860B5
:1020EC007B68013BB3F1807F01D301230FE00A4AE7
:1020FC007B68013B53600F214FF0FF30FFF790FFDF
:10210C00054B00229A60044B07221A6000231846E4
:10211C000837BD4680BD00BF10E000E080B582B03E
:10212C0000AF78607868FFF72DFF00BF0837BD4619
:10213C0080BD80B586B000AF0346B9607A60FB7392
:10214C0000237B61FFF742FF78617A68B968786990
:10215C00FFF790FF024697F90F3011461846FFF72C
:10216C005FFF00BF1837BD4680BD80B582B000AFA1
:10217C000346FB7197F907301846FFF735FF00BF90
:10218C000837BD4680BD80B582B000AF78607868F6
:10219C00FFF7A2FF034618460837BD4680BD000076
:1021AC0080B48BB000AF7860396000237B62002371
:1021BC003B6248E101227B6A02FA03F3FB613B6854
:1021CC001B68FA691340BB61BA69FB699A4240F01B
:1021DC0037813B685B68A34A93425ED0A14A934225
:1021EC0075D8A14A934258D09F4A93426FD89F4AC0
:1021FC00934252D09D4A934269D89D4A93424CD007
:10220C009B4A934263D89B4A934246D0994A934245
:10221C005DD8122B2AD8122B59D801A252F823F0D0
:10222C00A72200088122000893220008D52200086A
:10223C00DB220008DB220008DB220008DB2200087E
:10224C00DB220008DB220008DB220008DB2200086E
:10225C00DB220008DB220008DB220008DB2200085E
:10226C00DB220008892200089D220008824A934242
:10227C0013D02CE03B68DB683B6229E03B68DB68F1
:10228C0004333B6224E03B68DB6808333B621FE0AD
:10229C003B68DB680C333B621AE03B689B68002BA5
:1022AC0002D104233B6213E03B689B68012B05D1F0
:1022BC0008233B627B68FA691A6109E008233B62D8
:1022CC007B68FA695A6103E000233B6200E000BFBF
:1022DC00BB69FF2B01D87B6801E07B6804337B6111
:1022EC00BB69FF2B02D87B6A9B0002E07B6A083B30
:1022FC009B003B617B691A680F213B6901FA03F370
:10230C00DB431A40396A3B6901FA03F31A437B69D0
:10231C001A603B685B6803F08053002B00F09080E0
:10232C00564B9B69554A43F001039361534B9B6990
:10233C0003F00103BB60BB68514A7B6A9B08023304
:10234C0052F82330FB607B6A03F003039B000F22DF
:10235C0002FA03F3DB43FA681340FB607B68494ADB
:10236C0093420DD07B68484A934207D07B68474A1A
:10237C00934201D1022304E0032302E0012300E095
:10238C0000237A6A02F0030292009340FA68134326
:10239C00FB603B497B6A9B080233FA6841F82320B7
:1023AC003B685B6803F48013002B06D0384B9A68AB
:1023BC003749BB6913438B6006E0354B9A68BB69A0
:1023CC00DB43334913408B603B685B6803F40013B9
:1023DC00002B06D02E4BDA682D49BB691343CB601A
:1023EC0006E02B4BDA68BB69DB4329491340CB6011
:1023FC003B685B6803F40033002B06D0244B5A680F
:10240C002349BB6913434B6006E0214B5A68BB69F7
:10241C00DB431F4913404B603B685B6803F480331C
:10242C00002B06D01A4B1A681949BB6913430B6071
:10243C0006E0174B1A68BB69DB43154913400B6068
:10244C007B6A01337B623B681A687B6A22FA03F36E
:10245C00002B7FF4AFAE00BF00BF2C37BD4680BC55
:10246C00704700BF00003210000031100000221035
:10247C00000021100000121000001110001002408A
:10248C000000014000080140000C01400010014018
:10249C000004014080B485B000AF78600B467B80AF
:1024AC007B689A687B881340002B02D00123FB7356
:1024BC0001E00023FB73FB7B18461437BD4680BC40
:1024CC00704780B483B000AF78600B467B801346B6
:1024DC007B707B78002B03D07A887B681A6103E0D1
:1024EC007B881A047B681A6100BF0C37BD4680BC20
:1024FC00704780B485B000AF78600B467B807B68FA
:10250C00DB68FB607A88FB6813401A04FB68D943CC
:10251C007B880B401A437B681A6100BF1437BD4699
:10252C0080BC704780B483B000AF78600B46FB7002
:10253C00094B1B69084A23F004031361FB78012B38
:10254C0001D130BF02E040BF20BF20BF00BF0C371D
:10255C00BD4680BC704700BF00ED00E080B586B082
:10256C0000AF78607B68002B01D101236CE27B68A3
:10257C001B6803F00103002B00F08780924B5B6813
:10258C0003F00C03042B0CD08F4B5B6803F00C0393
:10259C00082B12D18C4B5B6803F48033B3F5803F6E
:1025AC000BD1894B1B6803F40033002B6CD07B6878
:1025BC005B68002B68D1012346E27B685B68B3F54E
:1025CC00803F06D1804B1B687F4A43F480331360F5
:1025DC002EE07B685B68002B0CD17B4B1B687A4A26
:1025EC0023F480331360784B1B68774A23F48023E1
:1025FC0013601DE07B685B68B3F5A02F0CD1724BA8
:10260C001B68714A43F4802313606F4B1B686E4A3E
:10261C0043F4803313600BE06B4B1B686A4A23F462
:10262C0080331360684B1B68674A23F48023136064
:10263C007B685B68002B13D0FFF79AFC386108E0CD
:10264C00FFF796FC02463B69D31A642B01D903238E
:10265C00FAE15D4B1B6803F40033002BF0D014E05F
:10266C00FFF786FC386108E0FFF782FC02463B6905
:10267C00D31A642B01D90323E6E1534B1B6803F4F3
:10268C000033002BF0D100E000BF7B681B6803F027
:10269C000203002B63D04C4B5B6803F00C03002B44
:1026AC000BD0494B5B6803F00C03082B1CD1464B39
:1026BC005B6803F48033002B16D1434B1B6803F08B
:1026CC000203002B05D07B681B69012B01D0012371
:1026DC00BAE13D4B1B6823F0F8027B685B69DB00B9
:1026EC00394913430B603AE07B681B69002B20D0FF
:1026FC00364B01221A60FFF73BFC386108E0FFF70C
:10270C0037FC02463B69D31A022B01D903239BE108
:10271C002D4B1B6803F00203002BF0D02A4B1B68D7
:10272C0023F0F8027B685B69DB00274913430B60DD
:10273C0015E0264B00221A60FFF71AFC386108E0FE
:10274C00FFF716FC02463B69D31A022B01D903236F
:10275C007AE11D4B1B6803F00203002BF0D17B6860
:10276C001B6803F00803002B3AD07B689B69002B95
:10277C0019D0174B01221A60FFF7FAFB386108E0F9
:10278C00FFF7F6FB02463B69D31A022B01D9032350
:10279C005AE10D4B5B6A03F00203002BF0D00120D1
:1027AC0000F09AFA1CE00A4B00221A60FFF7E0FBDB
:1027BC0038610FE0FFF7DCFB02463B69D31A022BB2
:1027CC0008D9032340E100BF001002400000424240
:1027DC00800442429E4B5B6A03F00203002BE9D15A
:1027EC007B681B6803F00403002B00F0A680002319
:1027FC00FB75974BDB6903F08053002B0DD1944B89
:10280C00DB69934A43F08053D361914BDB6903F04E
:10281C008053BB60BB680123FB758E4B1B6803F4B4
:10282C008073002B18D18B4B1B688A4A43F480733E
:10283C001360FFF79DFB386108E0FFF799FB024638
:10284C003B69D31A642B01D90323FDE0814B1B6830
:10285C0003F48073002BF0D07B68DB68012B06D16E
:10286C007B4B1B6A7A4A43F0010313622DE07B68B1
:10287C00DB68002B0CD1764B1B6A754A23F00103E5
:10288C001362734B1B6A724A23F0040313621CE03D
:10289C007B68DB68052B0CD16D4B1B6A6C4A43F0D3
:1028AC00040313626A4B1B6A694A43F00103136207
:1028BC000BE0674B1B6A664A23F001031362644BFF
:1028CC001B6A634A23F0040313627B68DB68002BEA
:1028DC0015D0FFF74DFB38610AE0FFF749FB0246C4
:1028EC003B69D31A41F28832934201D90323ABE0FE
:1028FC00574B1B6A03F00203002BEED014E0FFF7DA
:10290C0037FB38610AE0FFF733FB02463B69D31A09
:10291C0041F28832934201D9032395E04C4B1B6A58
:10292C0003F00203002BEED1FB7D012B05D1484BAC
:10293C00DB69474A23F08053D3617B68DB69002B4A
:10294C0000F08180424B5B6803F00C03082B61D0D4
:10295C007B68DB69022B46D13F4B00221A60FFF7E4
:10296C0007FB386108E0FFF703FB02463B69D31A0B
:10297C00022B01D9032367E0354B1B6803F000736E
:10298C00002BF0D17B681B6AB3F5803F08D1304B2C
:10299C005B6823F400327B689B682D4913434B60C2
:1029AC002B4B5B6823F474127B68196A7B685B6A37
:1029BC000B43274913434B60274B01221A60FFF747
:1029CC00D7FA386108E0FFF7D3FA02463B69D31A0D
:1029DC00022B01D9032337E01D4B1B6803F0007356
:1029EC00002BF0D02FE01C4B00221A60FFF7C0FA2E
:1029FC00386108E0FFF7BCFA02463B69D31A022B98
:102A0C0001D9032320E0124B1B6803F00073002B49
:102A1C00F0D118E07B68DB69012B01D1012313E0B5
:102A2C000B4B5B68FB60FB6803F480327B681B6AB2
:102A3C009A4206D1FB6803F470127B685B6A9A4277
:102A4C0001D0012300E0002318461837BD4680BD95
:102A5C0000100240007000406000424280B584B01B
:102A6C0000AF786039607B68002B01D10123D0E086
:102A7C006A4B1B6803F007033A689A4210D9674BFC
:102A8C001B6823F0070265493B6813430B60634BDB
:102A9C001B6803F007033A689A4201D00123B8E09F
:102AAC007B681B6803F00203002B20D07B681B683B
:102ABC0003F00403002B05D0594B5B68584A43F4D0
:102ACC00E06353607B681B6803F00803002B05D0A0
:102ADC00534B5B68524A43F460535360504B5B68F2
:102AEC0023F0F0027B689B684D4913434B607B6875
:102AFC001B6803F00103002B40D07B685B68012B43
:102B0C0007D1474B1B6803F40033002B15D101236D
:102B1C007FE07B685B68022B07D1414B1B6803F09D
:102B2C000073002B09D1012373E03D4B1B6803F0AC
:102B3C000203002B01D101236BE0394B5B6823F0BE
:102B4C0003027B685B68364913434B60FFF710FA4E
:102B5C00F8600AE0FFF70CFA0246FB68D31A41F260
:102B6C008832934201D9032353E02D4B5B6803F069
:102B7C000C027B685B689B009A42EBD1274B1B686D
:102B8C0003F007033A689A4210D2244B1B6823F0D7
:102B9C00070222493B6813430B60204B1B6803F070
:102BAC0007033A689A4201D0012332E07B681B6824
:102BBC0003F00403002B08D0194B5B6823F4E0628C
:102BCC007B68DB68164913434B607B681B6803F01A
:102BDC000803002B09D0124B5B6823F460527B680E
:102BEC001B69DB000E4913434B6000F021F80246D1
:102BFC000B4B5B681B0903F00F030A49CB5C22FAF1
:102C0C0003F3094A1360094B1B681846FFF76EF96A
:102C1C00002318461037BD4680BD00BF002002407F
:102C2C000010024048350008EC010020F0010020A3
:102C3C0080B487B000AF0023FB600023BB6000238F
:102C4C007B6100237B6000233B611E4B5B68FB6058
:102C5C00FB6803F00C03042B02D0082B03D027E0F5
:102C6C00194B3B6127E0FB689B0C03F00F03174AE1
:102C7C00D35C7B60FB6803F48033002B10D0114BCA
:102C8C005B685B0C03F00103114AD35CBB607B688F
:102C9C000D4A02FB03F2BB68B2FBF3F37B6104E069
:102CAC007B680C4A02FB03F37B617B693B6102E0AE
:102CBC00054B3B6100BF3B6918461C37BD4680BCC9
:102CCC00704700BF0010024000127A00583500080F
:102CDC006835000800093D0080B485B000AF78600D
:102CEC000A4B1B680A4AA2FB03235B0A7A6802FBA5
:102CFC0003F3FB6000BFFB685A1EFA60002BF9D18E
:102D0C0000BF00BF1437BD4680BC7047EC010020EB
:102D1C00D34D621080B582B000AF78607B68002B19
:102D2C0001D1012341E07B6893F83D30DBB2002BED
:102D3C0006D17B68002283F83C207868FFF73EF8C8
:102D4C007B68022283F83D207B681A687B68043319
:102D5C001946104600F056FA7B68012283F846208B
:102D6C007B68012283F83E207B68012283F83F2098
:102D7C007B68012283F840207B68012283F8412084
:102D8C007B68012283F842207B68012283F8432070
:102D9C007B68012283F844207B68012283F845205C
:102DAC007B68012283F83D20002318460837BD4676
:102DBC0080BD000080B485B000AF78607B6893F86C
:102DCC003D30DBB2012B01D0012335E07B680222C0
:102DDC0083F83D207B681B68DA687B681B6842F0CF
:102DEC000102DA607B681B68164A934209D07B6843
:102DFC001B68B3F1804F04D07B681B68124A934266
:102E0C0011D17B681B689B6803F00703FB60FB68B0
:102E1C00062B10D07B681B681A687B681B6842F015
:102E2C0001021A6007E07B681B681A687B681B68E4
:102E3C0042F001021A60002318461437BD4680BCCC
:102E4C00704700BF002C01400004004080B584B0E6
:102E5C0000AF78607B681B68DB68FB607B681B6875
:102E6C001B69BB60BB6803F00203002B20D0FB681E
:102E7C0003F00203002B1BD07B681B686FF002026F
:102E8C001A617B6801221A777B681B689B6903F0C7
:102E9C000303002B03D0786800F098F905E07868FC
:102EAC0000F08BF9786800F09AF97B6800221A77A9
:102EBC00BB6803F00403002B20D0FB6803F0040371
:102ECC00002B1BD07B681B686FF004021A617B68B7
:102EDC0002221A777B681B689B6903F44073002BF2
:102EEC0003D0786800F072F905E0786800F065F9B5
:102EFC00786800F074F97B6800221A77BB6803F0DD
:102F0C000803002B20D0FB6803F00803002B1BD018
:102F1C007B681B686FF008021A617B6804221A77C1
:102F2C007B681B68DB6903F00303002B03D0786814
:102F3C0000F04CF905E0786800F03FF9786800F093
:102F4C004EF97B6800221A77BB6803F01003002B44
:102F5C0020D0FB6803F01003002B1BD07B681B6890
:102F6C006FF010021A617B6808221A777B681B6865
:102F7C00DB6903F44073002B03D0786800F026F96A
:102F8C0005E0786800F019F9786800F028F97B689A
:102F9C0000221A77BB6803F00103002B0CD0FB68EE
:102FAC0003F00103002B07D07B681B686FF0010254
:102FBC001A617868FEF76EFEBB6803F08003002B85
:102FCC000CD0FB6803F08003002B07D07B681B68D8
:102FDC006FF080021A61786800F06FFABB6803F03A
:102FEC004003002B0CD0FB6803F04003002B07D0F0
:102FFC007B681B686FF040021A61786800F0F8F883
:10300C00BB6803F02003002B0CD0FB6803F02003FB
:10301C00002B07D07B681B686FF020021A61786860
:10302C0000F042FA00BF1037BD4680BD80B584B0B9
:10303C0000AF786039600023FB737B6893F83C30F9
:10304C00012B01D10223B4E07B68012283F83C20E0
:10305C007B68022283F83D207B681B689B68BB6001
:10306C00BB6823F07703BB60BB6823F47F43BB6072
:10307C007B681B68BA689A603B681B68B3F5005F95
:10308C003ED0B3F5005F00F28780B3F5805F00F0AF
:10309C008680B3F5805F7FD8702B1AD0702B7BD8CD
:1030AC00602B50D0602B77D8502B3CD0502B73D842
:1030BC00402B58D0402B6FD8302B64D0302B6BD892
:1030CC00202B60D0202B67D8002B5CD0102B5AD033
:1030DC0062E07B6818683B6899683B685A683B6893
:1030EC00DB6800F06AF97B681B689B68BB60BB6897
:1030FC0043F07703BB607B681B68BA689A604FE04B
:10310C007B6818683B6899683B685A683B68DB6861
:10311C0000F053F97B681B689A687B681B6842F463
:10312C0080429A603CE07B6818683B6859683B6851
:10313C00DB681A4600F0CAF87B681B6850211846F9
:10314C0000F021F92CE07B6818683B6859683B68F3
:10315C00DB681A4600F0E8F87B681B6860211846AB
:10316C0000F011F91CE07B6818683B6859683B68F3
:10317C00DB681A4600F0AAF87B681B6840211846E9
:10318C0000F001F90CE07B681A683B681B68194673
:10319C00104600F0F8F803E00123FB7300E000BFD9
:1031AC007B68012283F83D207B68002283F83C2059
:1031BC00FB7B18461037BD4680BD80B483B000AF92
:1031CC00786000BF0C37BD4680BC704780B483B0BC
:1031DC0000AF786000BF0C37BD4680BC704780B430
:1031EC0083B000AF786000BF0C37BD4680BC704721
:1031FC0080B483B000AF786000BF0C37BD4680BC94
:10320C007047000080B485B000AF786039607B688F
:10321C001B68FB607B682B4A934207D07B68B3F139
:10322C00804F03D07B68284A934208D1FB6823F077
:10323C007003FB603B685B68FA681343FB607B6858
:10324C00204A934207D07B68B3F1804F03D07B6850
:10325C001D4A934208D1FB6823F44073FB603B6822
:10326C00DB68FA681343FB60FB6823F080023B6861
:10327C005B691343FB607B68FA681A603B689A6869
:10328C007B68DA623B681A687B689A627B680D4AD5
:10329C00934203D13B681A697B681A637B680122ED
:1032AC005A617B681B6903F00103002B05D07B6816
:1032BC001B6923F001027B681A6100BF1437BD46FD
:1032CC0080BC7047002C01400004004080B487B0E3
:1032DC0000AFF860B9607A60FB681B6A7B61FB68C1
:1032EC001B6A23F00102FB681A62FB689B693B6155
:1032FC003B6923F0F0033B617B681B013A69134384
:10330C003B617B6923F00A037B617A69BB681343D9
:10331C007B61FB683A699A61FB687A691A6200BF43
:10332C001C37BD4680BC704780B487B000AFF860D6
:10333C00B9607A60FB681B6A7B61FB681B6A23F0CF
:10334C001002FB681A62FB689B693B613B6923F4C2
:10335C0070433B617B681B033A6913433B617B6998
:10336C0023F0A0037B61BB681B017A6913437B616B
:10337C00FB683A699A61FB687A691A6200BF1C376C
:10338C00BD4680BC704780B485B000AF78603960B2
:10339C007B689B68FB60FB6823F07003FB603A68FA
:1033AC00FB68134343F00703FB607B68FA689A6081
:1033BC0000BF1437BD4680BC704780B487B000AFE7
:1033CC00F860B9607A603B60FB689B687B617B69E5
:1033DC0023F47F437B613B681A027B681A43BB680A
:1033EC0013437A6913437B61FB687A699A6000BF67
:1033FC001C37BD4680BC704780B485B000AF786088
:10340C0039607B6893F83C30012B01D1022341E0F9
:10341C007B68012283F83C207B68022283F83D20E4
:10342C007B681B685B68FB607B681B689B68BB6088
:10343C00FB6823F07003FB603B681B68FA6813435E
:10344C00FB607B681B68FA685A607B681B68144ACF
:10345C00934209D07B681B68B3F1804F04D07B6822
:10346C001B68104A93420CD1BB6823F08003BB60ED
:10347C003B685B68BA681343BB607B681B68BA68BF
:10348C009A607B68012283F83D207B68002283F8D8
:10349C003C20002318461437BD4680BC704700BF43
:1034AC00002C01400004004080B483B000AF786071
:1034BC0000BF0C37BD4680BC704780B483B000AFF2
:1034CC00786000BF0C37BD4680BC704770B50026D5
:1034DC000C4D0D4C641BA410A64209D100F022F82F
:1034EC0000260A4D0A4C641BA410A64205D170BDDF
:1034FC0055F8043B98470136EEE755F8043B9847DE
:10350C000136F2E76C3500086C3500086C350008A4
:10351C007035000803460244934200D1704703F80B
:10352C00011BF9E7F8B500BFF8BC08BC9E46704714
:0C353C00F8B500BFF8BC08BC9E46704704
:10354800000000000000000001020304060708094B
:1035580002030405060708090A0B0C0D0E0F1010CC
:04356800010200005C
:04356C003101000821
:043570000D01000841
:103574000100000001000000010000000100000043
:103584000100000001000000010000000100000033
:103594000100000001000000010000000100000023
:1035A4000100000001000000010000000100000013
:1035B4000100000001000000010000000100000003
:1035C40001000000010000000100000001000000F3
:1035D40001000000010000000100000001000000E3
:1035E40001000000010000000100000001000000D3
:1035F40001000000010000000100000001000000C3
:1036040001000000010000000100000001000000B2
:10361400010000000500000003000000020000009B
:103624000500000003000000020000000500000087
:103634000300000002000000050000000300000079
:103644000200000000080140000801400008014099
:103654000008014000080140000801400008014042
:103664000008014000080140000801400008014032
:103674000008014000080140000801400200040065
:103684000800100020004000800000010002000437
:1036940000080010002000400000000000000101AC
:1036A4000000010101010000010000010000000010
:1036B40000010100010000010100000001000001FF
:1036C40000000001000000000000000001010101F1
:1036D40000000000000000000000000100000101E3
:1036E400000C0140000C0140000C0140000C0140A2
:1036F400000C0140000C0140000C0140000C014092
:10370400000C0140000C0140000C0140000C014081
:1037140001000200040008001000200040008000A6
:103724000001000200040008000001010000000084
:10373400010100000000010001000000010001007F
:103744000100000000010100000000010001000070
:1037540000010001000000010A00000000127A00CC
:0837640010000000010000004C
:0400000508001E8150
:00000001FF
