:020000040800F2
:1000000000280020491A0008D9190008DF19000843
:10001000E5190008EB190008F119000800000000BC
:10002000000000000000000000000000F7190008B8
:10003000031A0008000000000F1A00081B1A00082D
:10004000911A0008911A0008911A0008911A0008E4
:10005000911A0008911A0008911A0008911A0008D4
:10006000911A0008911A0008911A0008911A0008C4
:10007000911A0008911A0008911A0008911A0008B4
:10008000911A0008911A0008911A0008911A0008A4
:10009000911A0008911A0008911A0008911A000894
:1000A000911A0008911A0008911A0008911A000884
:1000B000291A0008911A000800000000911A00088F
:1000C000911A00080000000000000000911A0008CA
:1000D00000000000911A0008911A000800000000BA
:1000E000911A0008911A0008911A000800000000F7
:1000F0000000000000000000000000000000000000
:0C01000000000000000000005FF808F1A3
:10010C0010B5054C237833B9044B13B10448AFF345
:10011C0000800123237010BDFC01002000000000B2
:10012C00C030000808B5034B1BB103490348AFF3BB
:10013C00008008BD0000000000020020C030000854
:10014C0080B483B000AF7860094A7B6852F82330E2
:10015C00012B06D1064A7B68002142F823100123AB
:10016C0000E0002318460C37BD4680BC704700BF2A
:10017C001802002080B582B000AF00237B6012E033
:10018C00464A7B6852F8232045497B6841F8232076
:10019C00444A7B6852F8232040497B6841F823206D
:1001AC007B6801337B607B68092BE9DD4FF40051E0
:1001BC003D4801F053FF03461A463A4B1A604FF480
:1001CC008041394801F04AFF03461A46354B5A60C4
:1001DC004FF40041344801F041FF03461A46314BBD
:1001EC009A6000233B6050E02C4A3B6852F8232075
:1001FC002C493B6851F823309A4243D1274A3B683B
:10020C0052F8232026493B6851F823309A4239D1C1
:10021C00234A3B6852F8232024493B6851F8233089
:10022C009A4217D01E4A3B6852F823201F493B685C
:10023C0041F823201D4A3B6852F82330002B21D172
:10024C001B4B4FF4FA721A601A4A3B68012142F8B0
:10025C00231017E0164B1B68013B154A1360144B17
:10026C001B68002B0ED1124B4FF4FA721A600F4A16
:10027C003B6852F82330002B04D10E4A3B68012115
:10028C0042F823103B6801333B603B68092BABDD24
:10029C0000BF00BF0837BD4680BD00BF280000204E
:1002AC0050000020000000200010014078000020C9
:1002BC00A00000201802002080B500AF0020FFF73E
:1002CC003FFF0346012B0CD101F04CF800F08AF9EA
:1002DC00054B0C221A60FA21022001F0D3FA00F02F
:1002EC0039FC00BF80BD00BFA400002080B500AF6A
:1002FC000220FFF725FF0346012B0CD1074B1622DA
:10030C001A60FA21022001F0BDFA6421092001F0E3
:10031C00B9FA00F03FFC00BF80BD00BFA400002074
:10032C0080B500AF00F024FF9B4B1B68013B042BF6
:10033C0000F22F8101A252F823F000BF5D030008E8
:10034C009F0300081F0400089F0400081F050008F5
:10035C006421092001F096FA00F0ECFB8E4B02228E
:10036C001A604FF47A71002001F08CFA8B4B1B68E9
:10037C004FF47A7202FB03F31946012001F082FA62
:10038C00874B1B68854A12681146184600F058FFC7
:10039C0000E100F0F7FF834B1B68002B16D0824B5B
:1003AC001B68002B04DD804B1B68013B7E4A1360ED
:1003BC007E4B1B68002B04DD7C4B1B68013B7B4A8E
:1003CC0013604FF47A71002001F05CFA754B5B6896
:1003DC00002B19D0704B03221A604FF47A71002055
:1003EC0001F050FA724B1B684FF47A7202FB03F364
:1003FC001946012001F046FA6D4B1B686C4A1268D5
:10040C001146184600F01CFFFFF756FFFFF76EFF72
:10041C00C0E000F0C1FF634B1B68002B16D0624B91
:10042C001B68002B04DD604B1B68013B5E4A1360AC
:10043C005E4B1B68002B04DD5C4B1B68013B5B4A6D
:10044C0013604FF47A71002001F01CFA554B5B6875
:10045C00002B19D0504B04221A604FF47A710020F3
:10046C0001F010FA534B1B684FF47A7202FB03F342
:10047C001946012001F006FA4E4B1B684E4A1268D1
:10048C001146184600F0DCFEFFF716FFFFF72EFFB3
:10049C0080E000F08BFF434B1B68002B16D0424BC7
:1004AC001B68002B04DD404B1B68013B3E4A13606C
:1004BC003E4B1B68002B04DD3C4B1B68013B3B4A4D
:1004CC0013604FF47A71002001F0DCF9354B5B6856
:1004DC00002B19D0304B05221A604FF47A71002092
:1004EC0001F0D0F9354B1B684FF47A7202FB03F321
:1004FC001946012001F0C6F9304B1B682F4A1268CF
:10050C001146184600F09CFEFFF7D6FEFFF7EEFEF4
:10051C0040E000F055FF234B1B68002B16D0224BFC
:10052C001B68002B04DD204B1B68013B1E4A13602B
:10053C001E4B1B68002B04DD1C4B1B68013B1B4A2C
:10054C0013604FF47A71002001F09CF9154B5B6835
:10055C00002B19D0104B02221A604FF47A71002034
:10056C0001F090F90D4B1B684FF47A7202FB03F308
:10057C001946012001F086F9094B1B68074A1268DD
:10058C001146184600F05CFEFFF796FEFFF7AEFE34
:10059C0000E000BF00BF80BDA4000020C40000200C
:1005AC00A800002050020020480200204C0200202D
:1005BC00C8000020AC000020C0000020B0000020CB
:1005CC0080B483B000AF78607B6801337B607B685C
:1005DC00632B01DD01237B607B6818460C37BD461D
:1005EC0080BC704780B400AF0D4B1B680D4A136084
:1005FC000D4B1B680D4A13600D4B1B680D4A1360A5
:10060C000D4B1B680D4A13600D4B1B680D4A136094
:10061C000D4B1B680D4A136000BFBD4680BC704774
:10062C00A8000020B4000020AC000020B80000207E
:10063C00B0000020BC000020C0000020CC00002036
:10064C00C4000020D0000020C8000020D4000020EE
:10065C0080B500AF0120FFF773FD0346002B79D066
:10066C003E4B1B680C3B052B76D801A252F823F0AD
:10067C0095060008FB060008B70600081D070008D1
:10068C00D90600083F070008354B1B681846FFF7D2
:10069C0097FF0346324A1360324B1B681846FFF72C
:1006AC008FFF03462F4A136057E02F4B1B681846E9
:1006BC00FFF786FF03462C4A13602C4B1B68184629
:1006CC00FFF77EFF0346294A136046E0284B1B6860
:1006DC001846FFF775FF0346254A1360234B1B682A
:1006EC001846FFF76DFF0346204A136035E01F4B99
:1006FC001B681846FFF764FF03461C4A13601A4B2D
:10070C001B681846FFF75CFF0346174A136024E08A
:10071C00144B1B681846FFF753FF0346114A13602E
:10072C000F4B1B681846FFF74BFF03460C4A136030
:10073C0013E0104B1B681846FFF742FF03460D4AA7
:10074C001360074B1B681846FFF73AFF0346044A31
:10075C00136002E000BF00E000BF80BDA4000020D9
:10076C00B4000020D0000020B8000020CC000020F5
:10077C00BC000020D400002080B500AF0220FFF7A1
:10078C00DFFC0346002B49D0254B1B680C3B052B8B
:10079C0045D801A252F823F0BD070008F307000862
:1007AC00CF07000805080008E10700081708000833
:1007BC001C4B1B681C4A13601C4B1B681C4A1360A7
:1007CC002DE01C4B1B681C4A13601C4B1B681C4AFD
:1007DC00136024E01B4B1B681B4A1360174B1B68F0
:1007EC00174A13601BE0154B1B68154A1360114B1D
:1007FC001B68114A136012E00C4B1B680C4A136007
:10080C00084B1B68084A136009E0104B1B68104A20
:10081C001360044B1B68044A136000E000BF80BDEA
:10082C00A4000020B4000020A8000020D00000206C
:10083C00C4000020B8000020AC000020CC00002038
:10084C00C0000020BC000020B0000020D40000201C
:10085C00C800002080B500AF0020FFF771FC0346F4
:10086C00002B4CD000F07EFD264B1B680C3B052B5F
:10087C0041D801A252F823F09D080008B9080008DD
:10088C00A5080008C1080008AD080008C908000840
:10089C001C4B0E221A6033E01A4B10221A602FE008
:1008AC0000F068F9174B0D221A6029E0154B0F2246
:1008BC001A6025E0134B11221A6021E000F01CFD98
:1008CC00104B02221A604FF47A71002000F0DAFF0C
:1008DC000D4B1B684FF47A7202FB03F3194601208F
:1008EC0000F0D0FF094B1B68074A126811461846E6
:1008FC0000F0A6FC04E0034B0C221A6000E000BFE1
:10090C0080BD00BFA4000020C4000020A80000206F
:10091C0080B500AF174B9B68002B29D0164B1B687A
:10092C000C3B052B20D801A252F823F051090008EA
:10093C006309000857090008690900085D090008E7
:10094C006F09000800F092FD0EE000F06FFD0BE067
:10095C0000F07CFD08E000F059FD05E000F03AFDE8
:10096C0002E000F045FD00BFFA21022000F08AFFF2
:10097C0000BF80BD50020020A400002080B500AF55
:10098C0000F0F6FB264B1B680C3B052B44D801A250
:10099C0052F823F0B9090008EF090008CB09000848
:1009AC00010A0008DD090008130A0008FFF752FFCE
:1009BC00FFF74EFEFFF7E0FEFFF7AAFF2DE0FFF773
:1009CC0049FFFFF745FEFFF7D7FEFFF7A1FF24E035
:1009DC00FFF740FFFFF73CFEFFF7CEFEFFF798FF57
:1009EC001BE0FFF737FFFFF733FEFFF7C5FEFFF7FE
:1009FC008FFF12E0FFF72EFFFFF72AFEFFF7BCFE7A
:100A0C00FFF786FF09E0FFF725FFFFF721FEFFF751
:100A1C00B3FEFFF77DFF00E000BF00BF80BD00BF4D
:100A2C00A400002080B500AF0020FFF789FB03462F
:100A3C00012B04D1034B01221A6000F07BF800BF9C
:100A4C0080BD00BFA400002080B500AF00F090FB7B
:100A5C00254B1B68163B032B42D801A252F823F0FE
:100A6C007D0A0008990A0008B50A0008D10A000896
:100A7C000220FFF765FB0346012B02D11A4B17220C
:100A8C001A60FFF7CFFF00F0C3FD2AE00220FFF74A
:100A9C0057FB0346012B02D1134B18221A60FFF7A8
:100AAC00C1FF00F0BDFD1CE00220FFF749FB03462F
:100ABC00012B02D10C4B19221A60FFF7B3FF00F087
:100ACC00A7FD0EE00220FFF73BFB0346012B02D1F2
:100ADC00054B16221A60FFF7A5FF00F0A9FD00E0F8
:100AEC0000BF00BF80BD00BFA400002080B500AFD8
:100AFC0001224FF48051054801F0C7FA01224FF44E
:100B0C000051024801F0C1FA00BF80BD000C014049
:100B1C0080B500AF01224FF48041054801F0B5FAD1
:100B2C0001224FF40041024801F0AFFA00BF80BD32
:100B3C00000C014080B400AF044B01221A70044B2E
:100B4C0001221A7000BFBD4680BC704772010020A4
:100B5C007301002080B500AF044B01221A70044BC6
:100B6C0000221A70FFF7D4FF00BF80BD7201002075
:100B7C007301002080B500AF044B00221A70044BA7
:100B8C0001221A70FFF7B2FF00BF80BD7201002076
:100B9C007301002080B500AF054B00221A70054B85
:100BAC0000221A70FFF7A2FFFFF7B2FF00BF80BD53
:100BBC00720100207301002080B582B000AF786014
:100BCC0000224FF48051294801F05FFA01224FF4C2
:100BDC000051264801F059FA254B1868254B198805
:100BEC007B681B781A4601F050FA214B5868214B50
:100BFC0059887B6801331B781A4601F046FA1C4B66
:100C0C0098681C4B99887B6802331B781A4601F054
:100C1C003CFA174BD868174BD9887B6803331B7881
:100C2C001A4601F032FA124B1869124B19897B687B
:100C3C0004331B781A4601F028FA0D4B58690D4BFA
:100C4C0059897B6805331B781A4601F01EFA084B4C
:100C5C009869084B99897B6806331B781A4601F012
:100C6C0014FA00BF0837BD4680BD00BF000C014020
:100C7C00D80000201001002080B582B000AF786051
:100C8C0001224FF48051294801F0FFF900224FF462
:100C9C000051264801F0F9F9254B1868254B1988A5
:100CAC007B681B781A4601F0F0F9214B5868214BF0
:100CBC0059887B6801331B781A4601F0E6F91C4B06
:100CCC0098681C4B99887B6802331B781A4601F094
:100CDC00DCF9174BD868174BD9887B6803331B7822
:100CEC001A4601F0D2F9124B1869124B19897B681C
:100CFC0004331B781A4601F0C8F90D4B58690D4B9B
:100D0C0059897B6805331B781A4601F0BEF9084BEC
:100D1C009869084B99897B6806331B781A4601F051
:100D2C00B4F900BF0837BD4680BD00BF000C0140C0
:100D3C00D80000201001002080B582B000AF786090
:100D4C0000224FF48041294801F09FF901224FF411
:100D5C000041264801F099F9254BD869254BD989D2
:100D6C007B681B781A4601F090F9214B186A214BCD
:100D7C00198A7B6801331B781A4601F086F91C4BE3
:100D8C00586A1C4B598A7B6802331B781A4601F04F
:100D9C007CF9174B986A174B998A7B6803331B783D
:100DAC001A4601F072F9124BD86A124BD98A7B6839
:100DBC0004331B781A4601F068F90D4B186B0D4B78
:100DCC00198B7B6805331B781A4601F05EF9084BCA
:100DDC00586B084B598B7B6806331B781A4601F00D
:100DEC0054F900BF0837BD4680BD00BF000C014060
:100DFC00D80000201001002080B582B000AF7860D0
:100E0C0001224FF48041294801F03FF900224FF4B0
:100E1C000041264801F039F9254BD869254BD98971
:100E2C007B681B781A4601F030F9214B186A214B6C
:100E3C00198A7B6801331B781A4601F026F91C4B82
:100E4C00586A1C4B598A7B6802331B781A4601F08E
:100E5C001CF9174B986A174B998A7B6803331B78DC
:100E6C001A4601F012F9124BD86A124BD98A7B68D8
:100E7C0004331B781A4601F008F90D4B186B0D4B17
:100E8C00198B7B6805331B781A4601F0FEF8084B6A
:100E9C00586B084B598B7B6806331B781A4601F04C
:100EAC00F4F800BF0837BD4680BD00BF000C014000
:100EBC00D80000201001002080B582B000AF78600F
:100ECC001A4B1B68002B02D0012B13D02AE07B6835
:100EDC00174A82FB03129210DB17D21A1346DB005F
:100EEC009B1A144A13441846FFF726FF0F4B012296
:100EFC001A6017E079680E4B83FB01239A10CB170D
:100F0C00D21A13469B0013445B00CA1A1346DB002B
:100F1C009B1A084A13441846FFF76EFF034B002236
:100F2C001A6000BF00BF0837BD4680BD40020020DC
:100F3C00676666662C01002080B582B000AF7860D1
:100F4C001A4B1B68002B02D0012B13D02AE07B68B4
:100F5C00174A82FB03129210DB17D21A1346DB00DE
:100F6C009B1A144A13441846FFF726FE0F4B012216
:100F7C001A6017E079680E4B83FB01239A10CB178C
:100F8C00D21A13469B0013445B00CA1A1346DB00AB
:100F9C009B1A084A13441846FFF76EFE034B0022B7
:100FAC001A6000BF00BF0837BD4680BD4402002058
:100FBC00676666662C01002080B500AF2F4B1B784E
:100FCC00002B55D02E4B1B68023B172B4AD801A285
:100FDC0052F823F04110000841100008411000089D
:100FEC004110000871100008711000087110000801
:100FFC007110000871100008711000084D100008E5
:10100C0071100008591000087110000865100008D4
:10101C0071100008711000087110000871100008A0
:10102C00711000088310000883100008831000085A
:10103C0083100008134B1B681846FFF77DFF1BE05D
:10104C00114B1B681846FFF777FF15E00F4B1B6819
:10105C001846FFF771FF0FE00D4B1B681846FFF7A2
:10106C006BFF09E0074B1B681846FFF765FF03E0B1
:10107C00FFF73CFD00E000BF00BF80BD7201002007
:10108C00A400002048020020B4000020B80000207A
:10109C00BC00002080B500AF2F4B1B78002B55D027
:1010AC002E4B1B68023B172B4AD801A252F823F097
:1010BC001D1100081D1100081D1100081D1100084C
:1010CC004D1100084D1100084D1100084D1100087C
:1010DC004D1100084D1100084D1100082911000890
:1010EC004D110008351100084D1100084111000880
:1010FC004D1100084D1100084D1100084D1100084C
:10110C005F1100085F1100085F1100085F110008F3
:10111C00134B1B681846FFF7CFFE1BE0114B1B68E7
:10112C001846FFF7C9FE15E00F4B1B681846FFF772
:10113C00C3FE0FE00D4B1B681846FFF7BDFE09E020
:10114C00074B1B681846FFF7B7FE03E0FFF7E0FC00
:10115C0000E000BF00BF80BD73010020A400002090
:10116C004C020020CC000020D0000020D400002035
:10117C0080B500AF304B5B6A002B5BD02F4B1B68EC
:10118C00023B172B4AD801A252F823F0F9110008A0
:10119C00F9110008F9110008F911000829120008CA
:1011AC002912000829120008291200082912000827
:1011BC0029120008FF11000811120008051200087E
:1011CC00171200080B1200081D1200082912000843
:1011DC0029120008291200082912000823120008FD
:1011EC00231200082312000823120008FFF7A2FCA8
:1011FC0017E0FFF7AFFC14E0FFF7ACFC11E0FFF7D2
:10120C00A9FC0EE0FFF7B6FC0BE0FFF7B3FC08E01F
:10121C00FFF7B0FC05E0FFF7BDFC02E0FFF78AFC2E
:10122C0000BFFFF7C9FEFFF735FF6421092000F06E
:10123C0029FB00E000BF80BD50020020A40000206C
:10124C0080B483B000AF78603960054A7B68136066
:10125C00044A3B68136000BF0C37BD4680BC704726
:10126C00480200204C02002080B584B000AF7860AA
:10127C000023FB6011E00D4AFB6852F823000C4A76
:10128C00FB6832F813107A68FB6813441B781A4613
:10129C0000F0FBFEFB680133FB60FB680B2BEAD90B
:1012AC0000BF00BF1037BD4680BD00BF74010020D9
:1012BC00A401002080B582B000AF00237B600EE05B
:1012CC000B4A7B6852F823000A4A7B6832F81330C9
:1012DC000022194600F0D9FE7B6801337B607B68E5
:1012EC000B2BEDD900BF00BF0837BD4680BD00BF3A
:1012FC0074010020A401002080B400AF0D4B1B68CA
:10130C000D4A13600D4B1B680D4A13600D4B1B6887
:10131C000D4A13600D4B1B680D4A13600D4B1B6877
:10132C000D4A13600D4B1B680D4A136000BFBD4680
:10133C0080BC7047B4000020A8000020B80000203A
:10134C00AC000020BC000020B0000020CC0000202D
:10135C00C0000020D0000020C4000020D4000020D9
:10136C00C800002080B500AFFFF7A4FF034B00229C
:10137C001A60034B00221A6000BF80BD4802002097
:10138C004C02002080B500AF0248FFF76DFF00BF94
:10139C0080BD00BFD401002080B500AF0248FFF72C
:1013AC0063FF00BF80BD00BFE001002080B500AF2F
:1013BC000248FFF759FF00BF80BD00BFBC010020F1
:1013CC0080B500AF0248FFF74FFF00BF80BD00BFE4
:1013DC00C801002080B500AF0121044800F06DFE6B
:1013EC004021024800F069FE00BF80BD000C0140A6
:1013FC0080B500AF0221044800F05FFE8021024856
:10140C0000F05BFE00BF80BD000C014080B500AF5A
:10141C000421054800F051FE4FF48071024800F0A1
:10142C004CFE00BF80BD00BF000C014080B500AF7A
:10143C000821054800F041FE4FF40071024800F00D
:10144C003CFE00BF80BD00BF000C014080B500AF6A
:10145C001021054800F031FE4FF48061024800F085
:10146C002CFE00BF80BD00BF000C014080B500AF5A
:10147C002021054800F021FE4FF40061024800F0E5
:10148C001CFE00BF80BD00BF000C014080B500AF4A
:10149C0001221021104800F0F8FD01224FF4806168
:1014AC000D4800F0F2FD002208210B4800F0EDFD84
:1014BC0000224FF40071084800F0E7FD00222021C3
:1014CC00054800F0E2FD00224FF40061024800F0F4
:1014DC00DCFD00BF80BD00BF000C014080B500AF3B
:1014EC0001222021104800F0D0FD01224FF40061B0
:1014FC000D4800F0CAFD002208210B4800F0C5FD84
:10150C0000224FF40071084800F0BFFD00221021AA
:10151C00054800F0BAFD00224FF48061024800F04B
:10152C00B4FD00BF80BD00BF000C014080B500AF12
:10153C00012201210F4800F0A8FD012240210D4895
:10154C0000F0A3FD002202210A4800F09EFD0022BB
:10155C008021084800F099FD00220421054800F084
:10156C0094FD00224FF48071024800F08EFD00BF04
:10157C0080BD00BF000C014080B500AF01220221EC
:10158C000F4800F082FD012280210D4800F07DFD06
:10159C00002201210A4800F078FD00224021084871
:1015AC0000F073FD00220421054800F06EFD0022BE
:1015BC004FF48071024800F068FD00BF80BD00BF91
:1015CC00000C014080B500AF012204210F4800F04F
:1015DC005CFD01224FF480710C4800F056FD002296
:1015EC0001210A4800F051FD00224021074800F07B
:1015FC004CFD00220221054800F047FD002280210D
:10160C00024800F042FD00BF80BD00BF000C01404D
:10161C0080B500AFFFF762FFFFF788FF00BF80BD0A
:10162C0080B500AFFFF75AFFFFF7A6FF00BF80BDE4
:10163C0080B500AFFFF72AFFFFF7C4FF00BF80BDE6
:10164C0080B500AF00F020FA00F010F800F096F82A
:10165C0000F048F8044801F075F9FEF761FEFFF759
:10166C008DF9FFF7F1F9F8E7A002002080B590B0F2
:10167C0000AF07F1180328220021184601F012FDD3
:10168C003B1D00221A605A609A60DA601A610223CC
:10169C00BB610123BB621023FB6200237B6307F158
:1016AC001803184600F022FD0346002B01D000F071
:1016BC00E3F80F237B600023BB600023FB60002357
:1016CC003B6100237B613B1D0021184600F08EFF1F
:1016DC000346002B01D000F0CFF800BF4037BD46C9
:1016EC0080BD000080B586B000AF07F10803002272
:1016FC001A605A609A60DA603B4600221A605A609F
:10170C001D4B4FF080421A601B4B41F63F725A60E2
:10171C00194B00229A60184B0922DA60164B0022F2
:10172C001A61154B00229A61134801F0BBF803466D
:10173C00002B01D000F0A0F84FF48053BB6007F1F0
:10174C00080319460C4801F039FA0346002B01D066
:10175C0000F092F800233B6000237B603B46194667
:10176C00054801F011FC0346002B01D000F084F871
:10177C0000BF1837BD4680BDA002002080B588B0E0
:10178C0000AF07F1100300221A605A609A60DA6009
:10179C002F4B9B692E4A43F0100393612C4B9B6992
:1017AC0003F01003FB60FB68294B9B69284A43F04C
:1017BC0004039361264B9B6903F00403BB60BB6875
:1017CC00234B9B69224A43F008039361204B9B698E
:1017DC0003F008037B607B68002247F6FE711D480E
:1017EC0000F053FC00224FF6FF711B4800F04DFC3B
:1017FC004FF460433B6100237B610123BB6107F124
:10180C0010031946154800F0AFFA47F6FE733B611A
:10181C0001237B610023BB610223FB6107F11003F1
:10182C0019460C4800F0A0FA4FF6FF733B610123F8
:10183C007B610023BB610223FB6107F11003194696
:10184C00054800F091FA00BF2037BD4680BD00BFAF
:10185C000010024000080140000C01400010014043
:10186C0080B582B000AF786000F02AF8FEF782FCF9
:10187C0000BF0837BD4680BD80B400AF72B600BF54
:10188C00FEE7000080B483B000AF78603960094A8D
:10189C007B68002142F82310074B1B683A6892FBC7
:1018AC00F3F206497B6841F8232000BF0C37BD4694
:1018BC0080BC704750020020EC0100207802002010
:1018CC0080B483B000AF00237B601CE0124A7B68BD
:1018DC0052F82330002B08DD0F4A7B6852F8233076
:1018EC005A1E0D497B6841F823200B4A7B6852F83D
:1018FC002330002B04DC094A7B68012142F82310B9
:10190C007B6801337B607B68092BDFDD00BF00BF88
:10191C000C37BD4680BC7047780200205002002076
:10192C0080B485B000AF154B9B69144A43F001039A
:10193C009361124B9B6903F00103BB60BB680F4BB7
:10194C00DB690E4A43F08053D3610C4BDB6903F027
:10195C0080537B607B680A4B5B68FB60FB6823F001
:10196C00E063FB60FB6843F08063FB60044AFB6848
:10197C00536000BF1437BD4680BC70470010024056
:10198C000000014080B584B000AF78607B681B68B4
:10199C00B3F1804F13D10C4BDB690B4A43F00103BD
:1019AC00D361094BDB6903F00103FB60FB68002288
:1019BC0000211C2000F0A1F91C2000F0BAF900BF96
:1019CC001037BD4680BD00BF0010024080B400AF90
:1019DC00FEE780B400AFFEE780B400AFFEE780B452
:1019EC0000AFFEE780B400AFFEE780B400AF00BFED
:1019FC00BD4680BC704780B400AF00BFBD4680BC04
:101A0C00704780B400AF00BFBD4680BC704780B546
:101A1C0000AF00F07FF800BF80BD000080B500AFC4
:101A2C00024800F0DBFF00BF80BD00BFA002002019
:101A3C0080B400AF00BFBD4680BC7047FFF7F8FF15
:101A4C000B480C490C4A002302E0D458C450043310
:101A5C00C4188C42F9D3094A094C002301E01360E5
:101A6C000432A242FBD301F0F9FAFFF7E9FD70470B
:101A7C0000000020FC01002004310008FC010020C3
:101A8C00EC020020FEE7000080B500AF084B1B689D
:101A9C00074A43F010031360032000F023F90F20D2
:101AAC0000F008F8FFF73CFF0023184680BD00BF8C
:101ABC000020024080B582B000AF7860124B1A68EB
:101ACC00124B1B7819464FF47A73B3FBF1F3B2FB4C
:101ADC00F3F3184600F03BF90346002B01D0012329
:101AEC000EE07B680F2B0AD8002279684FF0FF308C
:101AFC0000F003F9064A7B681360002300E0012321
:101B0C0018460837BD4680BDF0010020F8010020C2
:101B1C00F401002080B400AF054B1B781A46054B2E
:101B2C001B681344034A136000BFBD4680BC70475A
:101B3C00F8010020E802002080B400AF024B1B68C3
:101B4C001846BD4680BC7047E802002080B485B0C2
:101B5C0000AF78607B6803F00703FB600C4BDB681D
:101B6C00BB60BA684FF6FF031340BB60FB681A02F8
:101B7C00BB68134343F0BF6343F40033BB60044AB8
:101B8C00BB68D36000BF1437BD4680BC704700BF34
:101B9C0000ED00E080B400AF044BDB681B0A03F0DF
:101BAC0007031846BD4680BC704700BF00ED00E03F
:101BBC0080B483B000AF0346FB7197F90730002B5C
:101BCC000BDBFB7903F01F02064997F907305B0921
:101BDC00012000FA02F241F8232000BF0C37BD4669
:101BEC0080BC704700E100E080B483B000AF0346D6
:101BFC003960FB7197F90730002B0ADB3B68DAB2CE
:101C0C000C4997F907301201D2B20B4483F8002328
:101C1C000AE03B68DAB20849FB7903F00F03043B96
:101C2C001201D2B20B441A7600BF0C37BD4680BCF1
:101C3C00704700BF00E100E000ED00E080B489B027
:101C4C0000AFF860B9607A60FB6803F00703FB61D2
:101C5C00FB69C3F10703042B28BF0423BB61FB6999
:101C6C000433062B02D9FB69033B00E000237B61A4
:101C7C004FF0FF32BB6902FA03F3DA43BB681A4038
:101C8C007B699A404FF0FF317B6901FA03F3D9432A
:101C9C007B680B40134318462437BD4680BC704705
:101CAC0080B582B000AF78607B68013BB3F1807F78
:101CBC0001D301230FE00A4A7B68013B53600F21DB
:101CCC004FF0FF30FFF790FF054B00229A60044B5A
:101CDC0007221A60002318460837BD4680BD00BF96
:101CEC0010E000E080B582B000AF78607868FFF754
:101CFC002DFF00BF0837BD4680BD80B586B000AF54
:101D0C000346B9607A60FB7300237B61FFF742FFE7
:101D1C0078617A68B9687869FFF790FF024697F99D
:101D2C000F3011461846FFF75FFF00BF1837BD464E
:101D3C0080BD80B582B000AF0346FB7197F90730C8
:101D4C001846FFF735FF00BF0837BD4680BD80B58C
:101D5C0082B000AF78607868FFF7A2FF03461846A0
:101D6C000837BD4680BD000080B48BB000AF7860F2
:101D7C00396000237B6200233B6248E101227B6ACD
:101D8C0002FA03F3FB613B681B68FA691340BB6101
:101D9C00BA69FB699A4240F037813B685B68A34A99
:101DAC0093425ED0A14A934275D8A14A934258D02F
:101DBC009F4A93426FD89F4A934252D09D4A934276
:101DCC0069D89D4A93424CD09B4A934263D89B4A14
:101DDC00934246D0994A93425DD8122B2AD8122BA3
:101DEC0059D801A252F823F06F1E0008491E0008B2
:101DFC005B1E00089D1E0008A31E0008A31E000801
:101E0C00A31E0008A31E0008A31E0008A31E0008A2
:101E1C00A31E0008A31E0008A31E0008A31E000892
:101E2C00A31E0008A31E0008A31E0008511E0008D4
:101E3C00651E0008824A934213D02CE03B68DB6895
:101E4C003B6229E03B68DB6804333B6224E03B687F
:101E5C00DB6808333B621FE03B68DB680C333B629A
:101E6C001AE03B689B68002B02D104233B6213E011
:101E7C003B689B68012B05D108233B627B68FA69A0
:101E8C001A6109E008233B627B68FA695A6103E036
:101E9C0000233B6200E000BFBB69FF2B01D87B68CD
:101EAC0001E07B6804337B61BB69FF2B02D87B6A42
:101EBC009B0002E07B6A083B9B003B617B691A68D4
:101ECC000F213B6901FA03F3DB431A40396A3B6982
:101EDC0001FA03F31A437B691A603B685B6803F0F1
:101EEC008053002B00F09080564B9B69554A43F071
:101EFC0001039361534B9B6903F00103BB60BB6807
:101F0C00514A7B6A9B08023352F82330FB607B6A90
:101F1C0003F003039B000F2202FA03F3DB43FA687E
:101F2C001340FB607B68494A93420DD07B68484A5A
:101F3C00934207D07B68474A934201D1022304E0C5
:101F4C00032302E0012300E000237A6A02F003027B
:101F5C0092009340FA681343FB603B497B6A9B08F1
:101F6C000233FA6841F823203B685B6803F4801362
:101F7C00002B06D0384B9A683749BB6913438B60EA
:101F8C0006E0354B9A68BB69DB43334913408B60E1
:101F9C003B685B6803F40013002B06D02E4BDA6809
:101FAC002D49BB691343CB6006E02B4BDA68BB6948
:101FBC00DB4329491340CB603B685B6803F4003377
:101FCC00002B06D0244B5A682349BB6913434B6042
:101FDC0006E0214B5A68BB69DB431F4913404B6039
:101FEC003B685B6803F48033002B06D01A4B1A68ED
:101FFC001949BB6913430B6006E0174B1A68BB69A0
:10200C00DB43154913400B607B6A01337B623B68F1
:10201C001A687B6A22FA03F3002B7FF4AFAE00BF81
:10202C0000BF2C37BD4680BC704700BF000032108B
:10203C0000003110000022100000211000001210CE
:10204C000000111000100240000001400008014087
:10205C00000C0140001001400004014080B485B028
:10206C0000AF78600B467B807B689A687B88134056
:10207C00002B02D00123FB7301E00023FB73FB7BDD
:10208C0018461437BD4680BC704780B483B000AF8F
:10209C0078600B467B8013467B707B78002B03D0DB
:1020AC007A887B681A6103E07B881A047B681A6162
:1020BC0000BF0C37BD4680BC704780B485B000AF04
:1020CC0078600B467B807B68DB68FB607A88FB68FA
:1020DC0013401A04FB68D9437B880B401A437B6876
:1020EC001A6100BF1437BD4680BC704780B586B0FE
:1020FC0000AF78607B68002B01D101236CE27B6818
:10210C001B6803F00103002B00F08780924B5B6887
:10211C0003F00C03042B0CD08F4B5B6803F00C0307
:10212C00082B12D18C4B5B6803F48033B3F5803FE2
:10213C000BD1894B1B6803F40033002B6CD07B68EC
:10214C005B68002B68D1012346E27B685B68B3F5C2
:10215C00803F06D1804B1B687F4A43F48033136069
:10216C002EE07B685B68002B0CD17B4B1B687A4A9A
:10217C0023F480331360784B1B68774A23F4802355
:10218C0013601DE07B685B68B3F5A02F0CD1724B1C
:10219C001B68714A43F4802313606F4B1B686E4AB3
:1021AC0043F4803313600BE06B4B1B686A4A23F4D7
:1021BC0080331360684B1B68674A23F480231360D9
:1021CC007B685B68002B13D0FFF7B6FC386108E026
:1021DC00FFF7B2FC02463B69D31A642B01D90323E7
:1021EC00FAE15D4B1B6803F40033002BF0D014E0D4
:1021FC00FFF7A2FC386108E0FFF79EFC02463B6942
:10220C00D31A642B01D90323E6E1534B1B6803F467
:10221C000033002BF0D100E000BF7B681B6803F09B
:10222C000203002B63D04C4B5B6803F00C03002BB8
:10223C000BD0494B5B6803F00C03082B1CD1464BAD
:10224C005B6803F48033002B16D1434B1B6803F0FF
:10225C000203002B05D07B681B69012B01D00123E5
:10226C00BAE13D4B1B6823F0F8027B685B69DB002D
:10227C00394913430B603AE07B681B69002B20D073
:10228C00364B01221A60FFF757FC386108E0FFF764
:10229C0053FC02463B69D31A022B01D903239BE161
:1022AC002D4B1B6803F00203002BF0D02A4B1B684C
:1022BC0023F0F8027B685B69DB00274913430B6052
:1022CC0015E0264B00221A60FFF736FC386108E057
:1022DC00FFF732FC02463B69D31A022B01D90323C8
:1022EC007AE11D4B1B6803F00203002BF0D17B68D5
:1022FC001B6803F00803002B3AD07B689B69002B0A
:10230C0019D0174B01221A60FFF716FC386108E050
:10231C00FFF712FC02463B69D31A022B01D90323A7
:10232C005AE10D4B5B6A03F00203002BF0D0012045
:10233C0000F09AFA1CE00A4B00221A60FFF7FCFB33
:10234C0038610FE0FFF7F8FB02463B69D31A022B0A
:10235C0008D9032340E100BF0010024000004242B4
:10236C00800442429E4B5B6A03F00203002BE9D1CE
:10237C007B681B6803F00403002B00F0A68000238D
:10238C00FB75974BDB6903F08053002B0DD1944BFD
:10239C00DB69934A43F08053D361914BDB6903F0C3
:1023AC008053BB60BB680123FB758E4B1B6803F429
:1023BC008073002B18D18B4B1B688A4A43F48073B3
:1023CC001360FFF7B9FB386108E0FFF7B5FB024675
:1023DC003B69D31A642B01D90323FDE0814B1B68A5
:1023EC0003F48073002BF0D07B68DB68012B06D1E3
:1023FC007B4B1B6A7A4A43F0010313622DE07B6826
:10240C00DB68002B0CD1764B1B6A754A23F0010359
:10241C001362734B1B6A724A23F0040313621CE0B1
:10242C007B68DB68052B0CD16D4B1B6A6C4A43F047
:10243C00040313626A4B1B6A694A43F0010313627B
:10244C000BE0674B1B6A664A23F001031362644B73
:10245C001B6A634A23F0040313627B68DB68002B5E
:10246C0015D0FFF769FB38610AE0FFF765FB024600
:10247C003B69D31A41F28832934201D90323ABE072
:10248C00574B1B6A03F00203002BEED014E0FFF74E
:10249C0053FB38610AE0FFF74FFB02463B69D31A46
:1024AC0041F28832934201D9032395E04C4B1B6ACD
:1024BC0003F00203002BEED1FB7D012B05D1484B21
:1024CC00DB69474A23F08053D3617B68DB69002BBF
:1024DC0000F08180424B5B6803F00C03082B61D049
:1024EC007B68DB69022B46D13F4B00221A60FFF759
:1024FC0023FB386108E0FFF71FFB02463B69D31A48
:10250C00022B01D9032367E0354B1B6803F00073E2
:10251C00002BF0D17B681B6AB3F5803F08D1304BA0
:10252C005B6823F400327B689B682D4913434B6036
:10253C002B4B5B6823F474127B68196A7B685B6AAB
:10254C000B43274913434B60274B01221A60FFF7BB
:10255C00F3FA386108E0FFF7EFFA02463B69D31A49
:10256C00022B01D9032337E01D4B1B6803F00073CA
:10257C00002BF0D02FE01C4B00221A60FFF7DCFA86
:10258C00386108E0FFF7D8FA02463B69D31A022BF0
:10259C0001D9032320E0124B1B6803F00073002BBE
:1025AC00F0D118E07B68DB69012B01D1012313E02A
:1025BC000B4B5B68FB60FB6803F480327B681B6A27
:1025CC009A4206D1FB6803F470127B685B6A9A42EC
:1025DC0001D0012300E0002318461837BD4680BD0A
:1025EC0000100240007000406000424280B584B090
:1025FC0000AF786039607B68002B01D10123D0E0FB
:10260C006A4B1B6803F007033A689A4210D9674B70
:10261C001B6823F0070265493B6813430B60634B4F
:10262C001B6803F007033A689A4201D00123B8E013
:10263C007B681B6803F00203002B20D07B681B68AF
:10264C0003F00403002B05D0594B5B68584A43F444
:10265C00E06353607B681B6803F00803002B05D014
:10266C00534B5B68524A43F460535360504B5B6866
:10267C0023F0F0027B689B684D4913434B607B68E9
:10268C001B6803F00103002B40D07B685B68012BB7
:10269C0007D1474B1B6803F40033002B15D10123E2
:1026AC007FE07B685B68022B07D1414B1B6803F012
:1026BC000073002B09D1012373E03D4B1B6803F021
:1026CC000203002B01D101236BE0394B5B6823F033
:1026DC0003027B685B68364913434B60FFF72CFAA7
:1026EC00F8600AE0FFF728FA0246FB68D31A41F2B9
:1026FC008832934201D9032353E02D4B5B6803F0DE
:10270C000C027B685B689B009A42EBD1274B1B68E1
:10271C0003F007033A689A4210D2244B1B6823F04B
:10272C00070222493B6813430B60204B1B6803F0E4
:10273C0007033A689A4201D0012332E07B681B6898
:10274C0003F00403002B08D0194B5B6823F4E06200
:10275C007B68DB68164913434B607B681B6803F08E
:10276C000803002B09D0124B5B6823F460527B6882
:10277C001B69DB000E4913434B6000F021F8024645
:10278C000B4B5B681B0903F00F030A49CB5C22FA65
:10279C0003F3094A1360094B1B681846FFF78AF9C3
:1027AC00002318461037BD4680BD00BF00200240F4
:1027BC0000100240D8300008F0010020F401002085
:1027CC0080B487B000AF0023FB600023BB60002304
:1027DC007B6100237B6000233B611E4B5B68FB60CD
:1027EC00FB6803F00C03042B02D0082B03D027E06A
:1027FC00194B3B6127E0FB689B0C03F00F03174A56
:10280C00D35C7B60FB6803F48033002B10D0114B3E
:10281C005B685B0C03F00103114AD35CBB607B6803
:10282C000D4A02FB03F2BB68B2FBF3F37B6104E0DD
:10283C007B680C4A02FB03F37B617B693B6102E022
:10284C00054B3B6100BF3B6918461C37BD4680BC3D
:10285C00704700BF0010024000127A00E8300008F8
:10286C00F830000800093D0080B485B000AF7860F6
:10287C000A4B1B680A4AA2FB03235B0A7A6802FB19
:10288C0003F3FB6000BFFB685A1EFA60002BF9D102
:10289C0000BF00BF1437BD4680BC7047F00100205C
:1028AC00D34D621080B582B000AF78607B68002B8E
:1028BC0001D1012341E07B6893F83D30DBB2002B62
:1028CC0006D17B68002283F83C207868FFF75AF821
:1028DC007B68022283F83D207B681A687B6804338E
:1028EC001946104600F056FA7B68012283F8462000
:1028FC007B68012283F83E207B68012283F83F200D
:10290C007B68012283F840207B68012283F84120F8
:10291C007B68012283F842207B68012283F84320E4
:10292C007B68012283F844207B68012283F84520D0
:10293C007B68012283F83D20002318460837BD46EA
:10294C0080BD000080B485B000AF78607B6893F8E0
:10295C003D30DBB2012B01D0012335E07B68022234
:10296C0083F83D207B681B68DA687B681B6842F043
:10297C000102DA607B681B68164A934209D07B68B7
:10298C001B68B3F1804F04D07B681B68124A9342DA
:10299C0011D17B681B689B6803F00703FB60FB6825
:1029AC00062B10D07B681B681A687B681B6842F08A
:1029BC0001021A6007E07B681B681A687B681B6859
:1029CC0042F001021A60002318461437BD4680BC41
:1029DC00704700BF002C01400004004080B584B05B
:1029EC0000AF78607B681B68DB68FB607B681B68EA
:1029FC001B69BB60BB6803F00203002B20D0FB6893
:102A0C0003F00203002B1BD07B681B686FF00202E3
:102A1C001A617B6801221A777B681B689B6903F03B
:102A2C000303002B03D0786800F098F905E0786870
:102A3C0000F08BF9786800F09AF97B6800221A771D
:102A4C00BB6803F00403002B20D0FB6803F00403E5
:102A5C00002B1BD07B681B686FF004021A617B682B
:102A6C0002221A777B681B689B6903F44073002B66
:102A7C0003D0786800F072F905E0786800F065F929
:102A8C00786800F074F97B6800221A77BB6803F051
:102A9C000803002B20D0FB6803F00803002B1BD08D
:102AAC007B681B686FF008021A617B6804221A7736
:102ABC007B681B68DB6903F00303002B03D0786889
:102ACC0000F04CF905E0786800F03FF9786800F008
:102ADC004EF97B6800221A77BB6803F01003002BB9
:102AEC0020D0FB6803F01003002B1BD07B681B6805
:102AFC006FF010021A617B6808221A777B681B68DA
:102B0C00DB6903F44073002B03D0786800F026F9DE
:102B1C0005E0786800F019F9786800F028F97B680E
:102B2C0000221A77BB6803F00103002B0CD0FB6862
:102B3C0003F00103002B07D07B681B686FF00102C8
:102B4C001A617868FEF78CFEBB6803F08003002BDB
:102B5C000CD0FB6803F08003002B07D07B681B684C
:102B6C006FF080021A61786800F06FFABB6803F0AE
:102B7C004003002B0CD0FB6803F04003002B07D064
:102B8C007B681B686FF040021A61786800F0F8F8F7
:102B9C00BB6803F02003002B0CD0FB6803F0200370
:102BAC00002B07D07B681B686FF020021A617868D5
:102BBC0000F042FA00BF1037BD4680BD80B584B02E
:102BCC0000AF786039600023FB737B6893F83C306E
:102BDC00012B01D10223B4E07B68012283F83C2055
:102BEC007B68022283F83D207B681B689B68BB6076
:102BFC00BB6823F07703BB60BB6823F47F43BB60E7
:102C0C007B681B68BA689A603B681B68B3F5005F09
:102C1C003ED0B3F5005F00F28780B3F5805F00F023
:102C2C008680B3F5805F7FD8702B1AD0702B7BD841
:102C3C00602B50D0602B77D8502B3CD0502B73D8B6
:102C4C00402B58D0402B6FD8302B64D0302B6BD806
:102C5C00202B60D0202B67D8002B5CD0102B5AD0A7
:102C6C0062E07B6818683B6899683B685A683B6807
:102C7C00DB6800F06AF97B681B689B68BB60BB680B
:102C8C0043F07703BB607B681B68BA689A604FE0BF
:102C9C007B6818683B6899683B685A683B68DB68D6
:102CAC0000F053F97B681B689A687B681B6842F4D8
:102CBC0080429A603CE07B6818683B6859683B68C6
:102CCC00DB681A4600F0CAF87B681B68502118466E
:102CDC0000F021F92CE07B6818683B6859683B6868
:102CEC00DB681A4600F0E8F87B681B686021184620
:102CFC0000F011F91CE07B6818683B6859683B6868
:102D0C00DB681A4600F0AAF87B681B68402118465D
:102D1C0000F001F90CE07B681A683B681B681946E7
:102D2C00104600F0F8F803E00123FB7300E000BF4D
:102D3C007B68012283F83D207B68002283F83C20CD
:102D4C00FB7B18461037BD4680BD80B483B000AF06
:102D5C00786000BF0C37BD4680BC704780B483B030
:102D6C0000AF786000BF0C37BD4680BC704780B4A4
:102D7C0083B000AF786000BF0C37BD4680BC704795
:102D8C0080B483B000AF786000BF0C37BD4680BC08
:102D9C007047000080B485B000AF786039607B6804
:102DAC001B68FB607B682B4A934207D07B68B3F1AE
:102DBC00804F03D07B68284A934208D1FB6823F0EC
:102DCC007003FB603B685B68FA681343FB607B68CD
:102DDC00204A934207D07B68B3F1804F03D07B68C5
:102DEC001D4A934208D1FB6823F44073FB603B6897
:102DFC00DB68FA681343FB60FB6823F080023B68D6
:102E0C005B691343FB607B68FA681A603B689A68DD
:102E1C007B68DA623B681A687B689A627B680D4A49
:102E2C00934203D13B681A697B681A637B68012261
:102E3C005A617B681B6903F00103002B05D07B688A
:102E4C001B6923F001027B681A6100BF1437BD4671
:102E5C0080BC7047002C01400004004080B487B057
:102E6C0000AFF860B9607A60FB681B6A7B61FB6835
:102E7C001B6A23F00102FB681A62FB689B693B61C9
:102E8C003B6923F0F0033B617B681B013A691343F8
:102E9C003B617B6923F00A037B617A69BB6813434E
:102EAC007B61FB683A699A61FB687A691A6200BFB8
:102EBC001C37BD4680BC704780B487B000AFF8604B
:102ECC00B9607A60FB681B6A7B61FB681B6A23F044
:102EDC001002FB681A62FB689B693B613B6923F437
:102EEC0070433B617B681B033A6913433B617B690D
:102EFC0023F0A0037B61BB681B017A6913437B61E0
:102F0C00FB683A699A61FB687A691A6200BF1C37E0
:102F1C00BD4680BC704780B485B000AF7860396026
:102F2C007B689B68FB60FB6823F07003FB603A686E
:102F3C00FB68134343F00703FB607B68FA689A60F5
:102F4C0000BF1437BD4680BC704780B487B000AF5B
:102F5C00F860B9607A603B60FB689B687B617B6959
:102F6C0023F47F437B613B681A027B681A43BB687E
:102F7C0013437A6913437B61FB687A699A6000BFDB
:102F8C001C37BD4680BC704780B485B000AF7860FC
:102F9C0039607B6893F83C30012B01D1022341E06E
:102FAC007B68012283F83C207B68022283F83D2059
:102FBC007B681B685B68FB607B681B689B68BB60FD
:102FCC00FB6823F07003FB603B681B68FA681343D3
:102FDC00FB607B681B68FA685A607B681B68144A44
:102FEC00934209D07B681B68B3F1804F04D07B6897
:102FFC001B68104A93420CD1BB6823F08003BB6062
:10300C003B685B68BA681343BB607B681B68BA6833
:10301C009A607B68012283F83D207B68002283F84C
:10302C003C20002318461437BD4680BC704700BFB7
:10303C00002C01400004004080B483B000AF7860E5
:10304C0000BF0C37BD4680BC704780B483B000AF66
:10305C00786000BF0C37BD4680BC704770B5002649
:10306C000C4D0D4C641BA410A64209D100F022F8A3
:10307C0000260A4D0A4C641BA410A64205D170BD53
:10308C0055F8043B98470136EEE755F8043B984752
:10309C000136F2E7FC300008FC300008FC30000878
:1030AC000031000803460244934200D1704703F8F4
:1030BC00011BF9E7F8B500BFF8BC08BC9E46704789
:0C30CC00F8B500BFF8BC08BC9E46704779
:1030D80000000000000000000102030406070809C0
:1030E80002030405060708090A0B0C0D0E0F101041
:0430F80001020000D1
:0430FC003101000896
:043100000D010008B5
:1031040001000000010000000100000001000000B7
:1031140001000000010000000100000001000000A7
:103124000100000001000000010000000100000097
:103134000100000001000000010000000100000087
:103144000100000001000000010000000100000077
:103154000100000001000000010000000100000067
:103164000100000001000000010000000100000057
:103174000100000001000000010000000100000047
:103184000100000001000000010000000100000037
:103194000100000001000000010000000100000027
:1031A400F40100000100000005000000030000001D
:1031B40002000000050000000300000002000000FF
:1031C40005000000030000000200000005000000EC
:1031D4000300000002000000000801400008014054
:1031E40000080140000801400008014000080140B7
:1031F40000080140000801400008014000080140A7
:103204000008014000080140000801400008014096
:1032140002000400080010002000400080000001AB
:10322400000200040008001000200040000000001C
:103234000000010100000101010100000100000182
:103244000000000000010100010000010100000075
:103254000100000100000001000000000000000067
:103264000101010100000000000000000000000155
:1032740000000101000C0140000C0140000C014061
:10328400000C0140000C0140000C0140000C014006
:10329400000C0140000C0140000C0140000C0140F6
:1032A400000C01400100020004000800100020008E
:1032B4004000800000010002000400080000010139
:1032C40000000000010100000000010001000000F6
:1032D40001000100010000000001010000000001E4
:1032E4000001000000010001000000010A000000CC
:0C32F40000127A00100000000100000031
:0400000508001A498C
:00000001FF
